{
  "_format": "hh-sol-artifact-1",
  "contractName": "MockParaSwapTokenTransferProxy",
  "sourceName": "contracts/mocks/swap/MockParaSwapTokenTransferProxy.sol",
  "abi": [
    {
      "anonymous": false,
      "inputs": [
        {
          "indexed": true,
          "internalType": "address",
          "name": "previousOwner",
          "type": "address"
        },
        {
          "indexed": true,
          "internalType": "address",
          "name": "newOwner",
          "type": "address"
        }
      ],
      "name": "OwnershipTransferred",
      "type": "event"
    },
    {
      "inputs": [],
      "name": "owner",
      "outputs": [
        {
          "internalType": "address",
          "name": "",
          "type": "address"
        }
      ],
      "stateMutability": "view",
      "type": "function"
    },
    {
      "inputs": [],
      "name": "renounceOwnership",
      "outputs": [],
      "stateMutability": "nonpayable",
      "type": "function"
    },
    {
      "inputs": [
        {
          "internalType": "address",
          "name": "token",
          "type": "address"
        },
        {
          "internalType": "address",
          "name": "from",
          "type": "address"
        },
        {
          "internalType": "address",
          "name": "to",
          "type": "address"
        },
        {
          "internalType": "uint256",
          "name": "amount",
          "type": "uint256"
        }
      ],
      "name": "transferFrom",
      "outputs": [],
      "stateMutability": "nonpayable",
      "type": "function"
    },
    {
      "inputs": [
        {
          "internalType": "address",
          "name": "newOwner",
          "type": "address"
        }
      ],
      "name": "transferOwnership",
      "outputs": [],
      "stateMutability": "nonpayable",
      "type": "function"
    }
  ],
  "bytecode": "0x608060405234801561001057600080fd5b50600080546001600160a01b031916339081178255604051909182917f8be0079c531659141344cd1fd0a4f28419497f9722a3daafe3b4186f6b6457e0908290a35061056a806100616000396000f3fe608060405234801561001057600080fd5b506004361061004c5760003560e01c806315dacbea14610051578063715018a6146100665780638da5cb5b1461006e578063f2fde38b1461009a575b600080fd5b61006461005f3660046104a5565b6100ad565b005b6100646101db565b6000546040805173ffffffffffffffffffffffffffffffffffffffff9092168252519081900360200190f35b6100646100a83660046104f0565b6102cb565b60005473ffffffffffffffffffffffffffffffffffffffff163314610133576040517f08c379a000000000000000000000000000000000000000000000000000000000815260206004820181905260248201527f4f776e61626c653a2063616c6c6572206973206e6f7420746865206f776e657260448201526064015b60405180910390fd5b6040517f23b872dd00000000000000000000000000000000000000000000000000000000815273ffffffffffffffffffffffffffffffffffffffff84811660048301528381166024830152604482018390528516906323b872dd906064016020604051808303816000875af11580156101b0573d6000803e3d6000fd5b505050506040513d601f19601f820116820180604052508101906101d49190610512565b5050505050565b60005473ffffffffffffffffffffffffffffffffffffffff16331461025c576040517f08c379a000000000000000000000000000000000000000000000000000000000815260206004820181905260248201527f4f776e61626c653a2063616c6c6572206973206e6f7420746865206f776e6572604482015260640161012a565b6000805460405173ffffffffffffffffffffffffffffffffffffffff909116907f8be0079c531659141344cd1fd0a4f28419497f9722a3daafe3b4186f6b6457e0908390a3600080547fffffffffffffffffffffffff0000000000000000000000000000000000000000169055565b60005473ffffffffffffffffffffffffffffffffffffffff16331461034c576040517f08c379a000000000000000000000000000000000000000000000000000000000815260206004820181905260248201527f4f776e61626c653a2063616c6c6572206973206e6f7420746865206f776e6572604482015260640161012a565b73ffffffffffffffffffffffffffffffffffffffff81166103ef576040517f08c379a000000000000000000000000000000000000000000000000000000000815260206004820152602660248201527f4f776e61626c653a206e6577206f776e657220697320746865207a65726f206160448201527f6464726573730000000000000000000000000000000000000000000000000000606482015260840161012a565b6000805460405173ffffffffffffffffffffffffffffffffffffffff808516939216917f8be0079c531659141344cd1fd0a4f28419497f9722a3daafe3b4186f6b6457e091a3600080547fffffffffffffffffffffffff00000000000000000000000000000000000000001673ffffffffffffffffffffffffffffffffffffffff92909216919091179055565b803573ffffffffffffffffffffffffffffffffffffffff811681146104a057600080fd5b919050565b600080600080608085870312156104bb57600080fd5b6104c48561047c565b93506104d26020860161047c565b92506104e06040860161047c565b9396929550929360600135925050565b60006020828403121561050257600080fd5b61050b8261047c565b9392505050565b60006020828403121561052457600080fd5b8151801515811461050b57600080fdfea264697066735822122077cbfc718d4ea9db4d7743344db9d8f46fde1e3cbfcd72c2be81e091d73cf53f64736f6c634300080a0033",
  "linkReferences": {},
  "deployedLinkReferences": {}
}