{
  "_format": "hh-sol-artifact-1",
  "contractName": "EmissionManager",
  "sourceName": "contracts/rewards/EmissionManager.sol",
  "abi": [
    {
      "inputs": [
        {
          "internalType": "address",
          "name": "controller",
          "type": "address"
        },
        {
          "internalType": "address",
          "name": "owner",
          "type": "address"
        }
      ],
      "stateMutability": "nonpayable",
      "type": "constructor"
    },
    {
      "anonymous": false,
      "inputs": [
        {
          "indexed": true,
          "internalType": "address",
          "name": "reward",
          "type": "address"
        },
        {
          "indexed": true,
          "internalType": "address",
          "name": "oldAdmin",
          "type": "address"
        },
        {
          "indexed": true,
          "internalType": "address",
          "name": "newAdmin",
          "type": "address"
        }
      ],
      "name": "EmissionAdminUpdated",
      "type": "event"
    },
    {
      "anonymous": false,
      "inputs": [
        {
          "indexed": true,
          "internalType": "address",
          "name": "previousOwner",
          "type": "address"
        },
        {
          "indexed": true,
          "internalType": "address",
          "name": "newOwner",
          "type": "address"
        }
      ],
      "name": "OwnershipTransferred",
      "type": "event"
    },
    {
      "inputs": [
        {
          "components": [
            {
              "internalType": "uint88",
              "name": "emissionPerSecond",
              "type": "uint88"
            },
            {
              "internalType": "uint256",
              "name": "totalSupply",
              "type": "uint256"
            },
            {
              "internalType": "uint32",
              "name": "distributionEnd",
              "type": "uint32"
            },
            {
              "internalType": "address",
              "name": "asset",
              "type": "address"
            },
            {
              "internalType": "address",
              "name": "reward",
              "type": "address"
            },
            {
              "internalType": "contract ITransferStrategyBase",
              "name": "transferStrategy",
              "type": "address"
            },
            {
              "internalType": "contract IEACAggregatorProxy",
              "name": "rewardOracle",
              "type": "address"
            }
          ],
          "internalType": "struct RewardsDataTypes.RewardsConfigInput[]",
          "name": "config",
          "type": "tuple[]"
        }
      ],
      "name": "configureAssets",
      "outputs": [],
      "stateMutability": "nonpayable",
      "type": "function"
    },
    {
      "inputs": [
        {
          "internalType": "address",
          "name": "reward",
          "type": "address"
        }
      ],
      "name": "getEmissionAdmin",
      "outputs": [
        {
          "internalType": "address",
          "name": "",
          "type": "address"
        }
      ],
      "stateMutability": "view",
      "type": "function"
    },
    {
      "inputs": [],
      "name": "getRewardsController",
      "outputs": [
        {
          "internalType": "contract IRewardsController",
          "name": "",
          "type": "address"
        }
      ],
      "stateMutability": "view",
      "type": "function"
    },
    {
      "inputs": [],
      "name": "owner",
      "outputs": [
        {
          "internalType": "address",
          "name": "",
          "type": "address"
        }
      ],
      "stateMutability": "view",
      "type": "function"
    },
    {
      "inputs": [],
      "name": "renounceOwnership",
      "outputs": [],
      "stateMutability": "nonpayable",
      "type": "function"
    },
    {
      "inputs": [
        {
          "internalType": "address",
          "name": "user",
          "type": "address"
        },
        {
          "internalType": "address",
          "name": "claimer",
          "type": "address"
        }
      ],
      "name": "setClaimer",
      "outputs": [],
      "stateMutability": "nonpayable",
      "type": "function"
    },
    {
      "inputs": [
        {
          "internalType": "address",
          "name": "asset",
          "type": "address"
        },
        {
          "internalType": "address",
          "name": "reward",
          "type": "address"
        },
        {
          "internalType": "uint32",
          "name": "newDistributionEnd",
          "type": "uint32"
        }
      ],
      "name": "setDistributionEnd",
      "outputs": [],
      "stateMutability": "nonpayable",
      "type": "function"
    },
    {
      "inputs": [
        {
          "internalType": "address",
          "name": "reward",
          "type": "address"
        },
        {
          "internalType": "address",
          "name": "admin",
          "type": "address"
        }
      ],
      "name": "setEmissionAdmin",
      "outputs": [],
      "stateMutability": "nonpayable",
      "type": "function"
    },
    {
      "inputs": [
        {
          "internalType": "address",
          "name": "emissionManager",
          "type": "address"
        }
      ],
      "name": "setEmissionManager",
      "outputs": [],
      "stateMutability": "nonpayable",
      "type": "function"
    },
    {
      "inputs": [
        {
          "internalType": "address",
          "name": "asset",
          "type": "address"
        },
        {
          "internalType": "address[]",
          "name": "rewards",
          "type": "address[]"
        },
        {
          "internalType": "uint88[]",
          "name": "newEmissionsPerSecond",
          "type": "uint88[]"
        }
      ],
      "name": "setEmissionPerSecond",
      "outputs": [],
      "stateMutability": "nonpayable",
      "type": "function"
    },
    {
      "inputs": [
        {
          "internalType": "address",
          "name": "reward",
          "type": "address"
        },
        {
          "internalType": "contract IEACAggregatorProxy",
          "name": "rewardOracle",
          "type": "address"
        }
      ],
      "name": "setRewardOracle",
      "outputs": [],
      "stateMutability": "nonpayable",
      "type": "function"
    },
    {
      "inputs": [
        {
          "internalType": "address",
          "name": "controller",
          "type": "address"
        }
      ],
      "name": "setRewardsController",
      "outputs": [],
      "stateMutability": "nonpayable",
      "type": "function"
    },
    {
      "inputs": [
        {
          "internalType": "address",
          "name": "reward",
          "type": "address"
        },
        {
          "internalType": "contract ITransferStrategyBase",
          "name": "transferStrategy",
          "type": "address"
        }
      ],
      "name": "setTransferStrategy",
      "outputs": [],
      "stateMutability": "nonpayable",
      "type": "function"
    },
    {
      "inputs": [
        {
          "internalType": "address",
          "name": "newOwner",
          "type": "address"
        }
      ],
      "name": "transferOwnership",
      "outputs": [],
      "stateMutability": "nonpayable",
      "type": "function"
    }
  ],
  "bytecode": "0x60806040523480156200001157600080fd5b50604051620016de380380620016de8339810160408190526200003491620001c0565b600080546001600160a01b03191633908117825560405190918291600080516020620016be833981519152908290a350600280546001600160a01b0319166001600160a01b0384161790556200008a8162000092565b5050620001f8565b6000546001600160a01b03163314620000f25760405162461bcd60e51b815260206004820181905260248201527f4f776e61626c653a2063616c6c6572206973206e6f7420746865206f776e657260448201526064015b60405180910390fd5b6001600160a01b038116620001595760405162461bcd60e51b815260206004820152602660248201527f4f776e61626c653a206e6577206f776e657220697320746865207a65726f206160448201526564647265737360d01b6064820152608401620000e9565b600080546040516001600160a01b0380851693921691600080516020620016be83398151915291a3600080546001600160a01b0319166001600160a01b0392909216919091179055565b80516001600160a01b0381168114620001bb57600080fd5b919050565b60008060408385031215620001d457600080fd5b620001df83620001a3565b9150620001ef60208401620001a3565b90509250929050565b6114b680620002086000396000f3fe608060405234801561001057600080fd5b50600436106100ea5760003560e01c8063bee36bb31161008c578063e15ac62311610066578063e15ac62314610209578063f2fde38b1461021c578063f5cf673b1461022f578063f996868b1461024257600080fd5b8063bee36bb3146101c5578063c5a7b538146101d8578063de262738146101eb57600080fd5b8063715018a6116100c8578063715018a6146101795780638da5cb5b14610181578063955c2ad71461019f578063a286c6b4146101b257600080fd5b80634f7459d5146100ef578063529b1e87146101045780635453ba1014610166575b600080fd5b6101026100fd366004610f1a565b610255565b005b61013d610112366004610f1a565b73ffffffffffffffffffffffffffffffffffffffff9081166000908152600160205260409020541690565b60405173ffffffffffffffffffffffffffffffffffffffff909116815260200160405180910390f35b610102610174366004610f3e565b610364565b610102610489565b60005473ffffffffffffffffffffffffffffffffffffffff1661013d565b6101026101ad36600461104d565b610579565b6101026101c0366004610f3e565b6106bb565b6101026101d3366004610f1a565b6107c5565b6101026101e6366004611175565b61088d565b60025473ffffffffffffffffffffffffffffffffffffffff1661013d565b610102610217366004610f3e565b6109be565b61010261022a366004610f1a565b610ab0565b61010261023d366004610f3e565b610c61565b610102610250366004611208565b610d73565b60005473ffffffffffffffffffffffffffffffffffffffff1633146102db576040517f08c379a000000000000000000000000000000000000000000000000000000000815260206004820181905260248201527f4f776e61626c653a2063616c6c6572206973206e6f7420746865206f776e657260448201526064015b60405180910390fd5b6002546040517f4f7459d500000000000000000000000000000000000000000000000000000000815273ffffffffffffffffffffffffffffffffffffffff838116600483015290911690634f7459d5906024015b600060405180830381600087803b15801561034957600080fd5b505af115801561035d573d6000803e3d6000fd5b5050505050565b73ffffffffffffffffffffffffffffffffffffffff82811660009081526001602052604090205483911633146103f6576040517f08c379a000000000000000000000000000000000000000000000000000000000815260206004820152601360248201527f4f4e4c595f454d495353494f4e5f41444d494e0000000000000000000000000060448201526064016102d2565b6002546040517f5453ba1000000000000000000000000000000000000000000000000000000000815273ffffffffffffffffffffffffffffffffffffffff8581166004830152848116602483015290911690635453ba10906044015b600060405180830381600087803b15801561046c57600080fd5b505af1158015610480573d6000803e3d6000fd5b50505050505050565b60005473ffffffffffffffffffffffffffffffffffffffff16331461050a576040517f08c379a000000000000000000000000000000000000000000000000000000000815260206004820181905260248201527f4f776e61626c653a2063616c6c6572206973206e6f7420746865206f776e657260448201526064016102d2565b6000805460405173ffffffffffffffffffffffffffffffffffffffff909116907f8be0079c531659141344cd1fd0a4f28419497f9722a3daafe3b4186f6b6457e0908390a3600080547fffffffffffffffffffffffff0000000000000000000000000000000000000000169055565b60005b8151811015610664573373ffffffffffffffffffffffffffffffffffffffff16600160008484815181106105b2576105b261128b565b6020908102919091018101516080015173ffffffffffffffffffffffffffffffffffffffff908116835290820192909252604001600020541614610652576040517f08c379a000000000000000000000000000000000000000000000000000000000815260206004820152601360248201527f4f4e4c595f454d495353494f4e5f41444d494e0000000000000000000000000060448201526064016102d2565b8061065c816112ba565b91505061057c565b506002546040517f955c2ad700000000000000000000000000000000000000000000000000000000815273ffffffffffffffffffffffffffffffffffffffff9091169063955c2ad79061032f90849060040161131a565b60005473ffffffffffffffffffffffffffffffffffffffff16331461073c576040517f08c379a000000000000000000000000000000000000000000000000000000000815260206004820181905260248201527f4f776e61626c653a2063616c6c6572206973206e6f7420746865206f776e657260448201526064016102d2565b73ffffffffffffffffffffffffffffffffffffffff80831660008181526001602052604080822080548686167fffffffffffffffffffffffff0000000000000000000000000000000000000000821681179092559151919094169392849290917fda40ea421dd7e42cf8be71255facac4fdc12a3f70f4d5fd373cb16cec4cb53849190a4505050565b60005473ffffffffffffffffffffffffffffffffffffffff163314610846576040517f08c379a000000000000000000000000000000000000000000000000000000000815260206004820181905260248201527f4f776e61626c653a2063616c6c6572206973206e6f7420746865206f776e657260448201526064016102d2565b600280547fffffffffffffffffffffffff00000000000000000000000000000000000000001673ffffffffffffffffffffffffffffffffffffffff92909216919091179055565b73ffffffffffffffffffffffffffffffffffffffff828116600090815260016020526040902054839116331461091f576040517f08c379a000000000000000000000000000000000000000000000000000000000815260206004820152601360248201527f4f4e4c595f454d495353494f4e5f41444d494e0000000000000000000000000060448201526064016102d2565b6002546040517fc5a7b53800000000000000000000000000000000000000000000000000000000815273ffffffffffffffffffffffffffffffffffffffff8681166004830152858116602483015263ffffffff851660448301529091169063c5a7b53890606401600060405180830381600087803b1580156109a057600080fd5b505af11580156109b4573d6000803e3d6000fd5b5050505050505050565b73ffffffffffffffffffffffffffffffffffffffff8281166000908152600160205260409020548391163314610a50576040517f08c379a000000000000000000000000000000000000000000000000000000000815260206004820152601360248201527f4f4e4c595f454d495353494f4e5f41444d494e0000000000000000000000000060448201526064016102d2565b6002546040517fe15ac62300000000000000000000000000000000000000000000000000000000815273ffffffffffffffffffffffffffffffffffffffff858116600483015284811660248301529091169063e15ac62390604401610452565b60005473ffffffffffffffffffffffffffffffffffffffff163314610b31576040517f08c379a000000000000000000000000000000000000000000000000000000000815260206004820181905260248201527f4f776e61626c653a2063616c6c6572206973206e6f7420746865206f776e657260448201526064016102d2565b73ffffffffffffffffffffffffffffffffffffffff8116610bd4576040517f08c379a000000000000000000000000000000000000000000000000000000000815260206004820152602660248201527f4f776e61626c653a206e6577206f776e657220697320746865207a65726f206160448201527f646472657373000000000000000000000000000000000000000000000000000060648201526084016102d2565b6000805460405173ffffffffffffffffffffffffffffffffffffffff808516939216917f8be0079c531659141344cd1fd0a4f28419497f9722a3daafe3b4186f6b6457e091a3600080547fffffffffffffffffffffffff00000000000000000000000000000000000000001673ffffffffffffffffffffffffffffffffffffffff92909216919091179055565b60005473ffffffffffffffffffffffffffffffffffffffff163314610ce2576040517f08c379a000000000000000000000000000000000000000000000000000000000815260206004820181905260248201527f4f776e61626c653a2063616c6c6572206973206e6f7420746865206f776e657260448201526064016102d2565b6002546040517ff5cf673b00000000000000000000000000000000000000000000000000000000815273ffffffffffffffffffffffffffffffffffffffff848116600483015283811660248301529091169063f5cf673b90604401600060405180830381600087803b158015610d5757600080fd5b505af1158015610d6b573d6000803e3d6000fd5b505050505050565b60005b83811015610e4d573360016000878785818110610d9557610d9561128b565b9050602002016020810190610daa9190610f1a565b73ffffffffffffffffffffffffffffffffffffffff90811682526020820192909252604001600020541614610e3b576040517f08c379a000000000000000000000000000000000000000000000000000000000815260206004820152601360248201527f4f4e4c595f454d495353494f4e5f41444d494e0000000000000000000000000060448201526064016102d2565b80610e45816112ba565b915050610d76565b506002546040517ff996868b00000000000000000000000000000000000000000000000000000000815273ffffffffffffffffffffffffffffffffffffffff9091169063f996868b90610eac90889088908890889088906004016113cf565b600060405180830381600087803b158015610ec657600080fd5b505af1158015610eda573d6000803e3d6000fd5b505050505050505050565b73ffffffffffffffffffffffffffffffffffffffff81168114610f0757600080fd5b50565b8035610f1581610ee5565b919050565b600060208284031215610f2c57600080fd5b8135610f3781610ee5565b9392505050565b60008060408385031215610f5157600080fd5b8235610f5c81610ee5565b91506020830135610f6c81610ee5565b809150509250929050565b7f4e487b7100000000000000000000000000000000000000000000000000000000600052604160045260246000fd5b60405160e0810167ffffffffffffffff81118282101715610fc957610fc9610f77565b60405290565b604051601f82017fffffffffffffffffffffffffffffffffffffffffffffffffffffffffffffffe016810167ffffffffffffffff8111828210171561101657611016610f77565b604052919050565b80356affffffffffffffffffffff81168114610f1557600080fd5b803563ffffffff81168114610f1557600080fd5b6000602080838503121561106057600080fd5b823567ffffffffffffffff8082111561107857600080fd5b818501915085601f83011261108c57600080fd5b81358181111561109e5761109e610f77565b6110ac848260051b01610fcf565b818152848101925060e09182028401850191888311156110cb57600080fd5b938501935b828510156111695780858a0312156110e85760008081fd5b6110f0610fa6565b6110f98661101e565b815286860135878201526040611110818801611039565b9082015260608681013561112381610ee5565b908201526080611134878201610f0a565b9082015260a0611145878201610f0a565b9082015260c0611156878201610f0a565b90820152845293840193928501926110d0565b50979650505050505050565b60008060006060848603121561118a57600080fd5b833561119581610ee5565b925060208401356111a581610ee5565b91506111b360408501611039565b90509250925092565b60008083601f8401126111ce57600080fd5b50813567ffffffffffffffff8111156111e657600080fd5b6020830191508360208260051b850101111561120157600080fd5b9250929050565b60008060008060006060868803121561122057600080fd5b853561122b81610ee5565b9450602086013567ffffffffffffffff8082111561124857600080fd5b61125489838a016111bc565b9096509450604088013591508082111561126d57600080fd5b5061127a888289016111bc565b969995985093965092949392505050565b7f4e487b7100000000000000000000000000000000000000000000000000000000600052603260045260246000fd5b60007fffffffffffffffffffffffffffffffffffffffffffffffffffffffffffffffff821415611313577f4e487b7100000000000000000000000000000000000000000000000000000000600052601160045260246000fd5b5060010190565b602080825282518282018190526000919060409081850190868401855b828110156113c257815180516affffffffffffffffffffff16855286810151878601528581015163ffffffff168686015260608082015173ffffffffffffffffffffffffffffffffffffffff9081169187019190915260808083015182169087015260a08083015182169087015260c091820151169085015260e09093019290850190600101611337565b5091979650505050505050565b73ffffffffffffffffffffffffffffffffffffffff868116825260606020808401829052908301869052600091879160808501845b8981101561142b57843561141781610ee5565b841682529382019390820190600101611404565b5085810360408701528681528101925086915060005b86811015611471576affffffffffffffffffffff61145e8461101e565b1684529281019291810191600101611441565b5091999850505050505050505056fea26469706673582212208ec45dbda90be79708d574a89e310145af8b1d908f4c1f9903e9e34a14374d7e64736f6c634300080a00338be0079c531659141344cd1fd0a4f28419497f9722a3daafe3b4186f6b6457e0",
  "linkReferences": {},
  "deployedLinkReferences": {}
}