{
  "_format": "hh-sol-artifact-1",
  "contractName": "RewardsController",
  "sourceName": "contracts/rewards/RewardsController.sol",
  "abi": [
    {
      "anonymous": false,
      "inputs": [
        {
          "indexed": true,
          "internalType": "address",
          "name": "asset",
          "type": "address"
        },
        {
          "indexed": true,
          "internalType": "address",
          "name": "reward",
          "type": "address"
        },
        {
          "indexed": true,
          "internalType": "address",
          "name": "user",
          "type": "address"
        },
        {
          "indexed": false,
          "internalType": "uint256",
          "name": "assetIndex",
          "type": "uint256"
        },
        {
          "indexed": false,
          "internalType": "uint256",
          "name": "userIndex",
          "type": "uint256"
        },
        {
          "indexed": false,
          "internalType": "uint256",
          "name": "rewardsAccrued",
          "type": "uint256"
        }
      ],
      "name": "Accrued",
      "type": "event"
    },
    {
      "anonymous": false,
      "inputs": [
        {
          "indexed": true,
          "internalType": "address",
          "name": "asset",
          "type": "address"
        },
        {
          "indexed": true,
          "internalType": "address",
          "name": "reward",
          "type": "address"
        },
        {
          "indexed": false,
          "internalType": "uint256",
          "name": "oldEmission",
          "type": "uint256"
        },
        {
          "indexed": false,
          "internalType": "uint256",
          "name": "newEmission",
          "type": "uint256"
        },
        {
          "indexed": false,
          "internalType": "uint256",
          "name": "oldDistributionEnd",
          "type": "uint256"
        },
        {
          "indexed": false,
          "internalType": "uint256",
          "name": "newDistributionEnd",
          "type": "uint256"
        },
        {
          "indexed": false,
          "internalType": "uint256",
          "name": "assetIndex",
          "type": "uint256"
        }
      ],
      "name": "AssetConfigUpdated",
      "type": "event"
    },
    {
      "anonymous": false,
      "inputs": [
        {
          "indexed": true,
          "internalType": "address",
          "name": "user",
          "type": "address"
        },
        {
          "indexed": true,
          "internalType": "address",
          "name": "claimer",
          "type": "address"
        }
      ],
      "name": "ClaimerSet",
      "type": "event"
    },
    {
      "anonymous": false,
      "inputs": [
        {
          "indexed": true,
          "internalType": "address",
          "name": "oldEmissionManager",
          "type": "address"
        },
        {
          "indexed": true,
          "internalType": "address",
          "name": "newEmissionManager",
          "type": "address"
        }
      ],
      "name": "EmissionManagerUpdated",
      "type": "event"
    },
    {
      "anonymous": false,
      "inputs": [
        {
          "indexed": true,
          "internalType": "address",
          "name": "reward",
          "type": "address"
        },
        {
          "indexed": true,
          "internalType": "address",
          "name": "rewardOracle",
          "type": "address"
        }
      ],
      "name": "RewardOracleUpdated",
      "type": "event"
    },
    {
      "anonymous": false,
      "inputs": [
        {
          "indexed": true,
          "internalType": "address",
          "name": "user",
          "type": "address"
        },
        {
          "indexed": true,
          "internalType": "address",
          "name": "reward",
          "type": "address"
        },
        {
          "indexed": true,
          "internalType": "address",
          "name": "to",
          "type": "address"
        },
        {
          "indexed": false,
          "internalType": "address",
          "name": "claimer",
          "type": "address"
        },
        {
          "indexed": false,
          "internalType": "uint256",
          "name": "amount",
          "type": "uint256"
        }
      ],
      "name": "RewardsClaimed",
      "type": "event"
    },
    {
      "anonymous": false,
      "inputs": [
        {
          "indexed": true,
          "internalType": "address",
          "name": "reward",
          "type": "address"
        },
        {
          "indexed": true,
          "internalType": "address",
          "name": "transferStrategy",
          "type": "address"
        }
      ],
      "name": "TransferStrategyInstalled",
      "type": "event"
    },
    {
      "inputs": [],
      "name": "REVISION",
      "outputs": [
        {
          "internalType": "uint256",
          "name": "",
          "type": "uint256"
        }
      ],
      "stateMutability": "view",
      "type": "function"
    },
    {
      "inputs": [
        {
          "internalType": "address[]",
          "name": "assets",
          "type": "address[]"
        },
        {
          "internalType": "address",
          "name": "to",
          "type": "address"
        }
      ],
      "name": "claimAllRewards",
      "outputs": [
        {
          "internalType": "address[]",
          "name": "rewardsList",
          "type": "address[]"
        },
        {
          "internalType": "uint256[]",
          "name": "claimedAmounts",
          "type": "uint256[]"
        }
      ],
      "stateMutability": "nonpayable",
      "type": "function"
    },
    {
      "inputs": [
        {
          "internalType": "address[]",
          "name": "assets",
          "type": "address[]"
        },
        {
          "internalType": "address",
          "name": "user",
          "type": "address"
        },
        {
          "internalType": "address",
          "name": "to",
          "type": "address"
        }
      ],
      "name": "claimAllRewardsOnBehalf",
      "outputs": [
        {
          "internalType": "address[]",
          "name": "rewardsList",
          "type": "address[]"
        },
        {
          "internalType": "uint256[]",
          "name": "claimedAmounts",
          "type": "uint256[]"
        }
      ],
      "stateMutability": "nonpayable",
      "type": "function"
    },
    {
      "inputs": [
        {
          "internalType": "address[]",
          "name": "assets",
          "type": "address[]"
        }
      ],
      "name": "claimAllRewardsToSelf",
      "outputs": [
        {
          "internalType": "address[]",
          "name": "rewardsList",
          "type": "address[]"
        },
        {
          "internalType": "uint256[]",
          "name": "claimedAmounts",
          "type": "uint256[]"
        }
      ],
      "stateMutability": "nonpayable",
      "type": "function"
    },
    {
      "inputs": [
        {
          "internalType": "address[]",
          "name": "assets",
          "type": "address[]"
        },
        {
          "internalType": "uint256",
          "name": "amount",
          "type": "uint256"
        },
        {
          "internalType": "address",
          "name": "to",
          "type": "address"
        },
        {
          "internalType": "address",
          "name": "reward",
          "type": "address"
        }
      ],
      "name": "claimRewards",
      "outputs": [
        {
          "internalType": "uint256",
          "name": "",
          "type": "uint256"
        }
      ],
      "stateMutability": "nonpayable",
      "type": "function"
    },
    {
      "inputs": [
        {
          "internalType": "address[]",
          "name": "assets",
          "type": "address[]"
        },
        {
          "internalType": "uint256",
          "name": "amount",
          "type": "uint256"
        },
        {
          "internalType": "address",
          "name": "user",
          "type": "address"
        },
        {
          "internalType": "address",
          "name": "to",
          "type": "address"
        },
        {
          "internalType": "address",
          "name": "reward",
          "type": "address"
        }
      ],
      "name": "claimRewardsOnBehalf",
      "outputs": [
        {
          "internalType": "uint256",
          "name": "",
          "type": "uint256"
        }
      ],
      "stateMutability": "nonpayable",
      "type": "function"
    },
    {
      "inputs": [
        {
          "internalType": "address[]",
          "name": "assets",
          "type": "address[]"
        },
        {
          "internalType": "uint256",
          "name": "amount",
          "type": "uint256"
        },
        {
          "internalType": "address",
          "name": "reward",
          "type": "address"
        }
      ],
      "name": "claimRewardsToSelf",
      "outputs": [
        {
          "internalType": "uint256",
          "name": "",
          "type": "uint256"
        }
      ],
      "stateMutability": "nonpayable",
      "type": "function"
    },
    {
      "inputs": [
        {
          "components": [
            {
              "internalType": "uint88",
              "name": "emissionPerSecond",
              "type": "uint88"
            },
            {
              "internalType": "uint256",
              "name": "totalSupply",
              "type": "uint256"
            },
            {
              "internalType": "uint32",
              "name": "distributionEnd",
              "type": "uint32"
            },
            {
              "internalType": "address",
              "name": "asset",
              "type": "address"
            },
            {
              "internalType": "address",
              "name": "reward",
              "type": "address"
            },
            {
              "internalType": "contract ITransferStrategyBase",
              "name": "transferStrategy",
              "type": "address"
            },
            {
              "internalType": "contract IEACAggregatorProxy",
              "name": "rewardOracle",
              "type": "address"
            }
          ],
          "internalType": "struct RewardsDataTypes.RewardsConfigInput[]",
          "name": "config",
          "type": "tuple[]"
        }
      ],
      "name": "configureAssets",
      "outputs": [],
      "stateMutability": "nonpayable",
      "type": "function"
    },
    {
      "inputs": [
        {
          "internalType": "address[]",
          "name": "assets",
          "type": "address[]"
        },
        {
          "internalType": "address",
          "name": "user",
          "type": "address"
        }
      ],
      "name": "getAllUserRewards",
      "outputs": [
        {
          "internalType": "address[]",
          "name": "rewardsList",
          "type": "address[]"
        },
        {
          "internalType": "uint256[]",
          "name": "unclaimedAmounts",
          "type": "uint256[]"
        }
      ],
      "stateMutability": "view",
      "type": "function"
    },
    {
      "inputs": [
        {
          "internalType": "address",
          "name": "asset",
          "type": "address"
        }
      ],
      "name": "getAssetDecimals",
      "outputs": [
        {
          "internalType": "uint8",
          "name": "",
          "type": "uint8"
        }
      ],
      "stateMutability": "view",
      "type": "function"
    },
    {
      "inputs": [
        {
          "internalType": "address",
          "name": "asset",
          "type": "address"
        },
        {
          "internalType": "address",
          "name": "reward",
          "type": "address"
        }
      ],
      "name": "getAssetIndex",
      "outputs": [
        {
          "internalType": "uint256",
          "name": "",
          "type": "uint256"
        },
        {
          "internalType": "uint256",
          "name": "",
          "type": "uint256"
        }
      ],
      "stateMutability": "view",
      "type": "function"
    },
    {
      "inputs": [
        {
          "internalType": "address",
          "name": "user",
          "type": "address"
        }
      ],
      "name": "getClaimer",
      "outputs": [
        {
          "internalType": "address",
          "name": "",
          "type": "address"
        }
      ],
      "stateMutability": "view",
      "type": "function"
    },
    {
      "inputs": [
        {
          "internalType": "address",
          "name": "asset",
          "type": "address"
        },
        {
          "internalType": "address",
          "name": "reward",
          "type": "address"
        }
      ],
      "name": "getDistributionEnd",
      "outputs": [
        {
          "internalType": "uint256",
          "name": "",
          "type": "uint256"
        }
      ],
      "stateMutability": "view",
      "type": "function"
    },
    {
      "inputs": [],
      "name": "getEmissionManager",
      "outputs": [
        {
          "internalType": "address",
          "name": "",
          "type": "address"
        }
      ],
      "stateMutability": "view",
      "type": "function"
    },
    {
      "inputs": [
        {
          "internalType": "address",
          "name": "reward",
          "type": "address"
        }
      ],
      "name": "getRewardOracle",
      "outputs": [
        {
          "internalType": "address",
          "name": "",
          "type": "address"
        }
      ],
      "stateMutability": "view",
      "type": "function"
    },
    {
      "inputs": [
        {
          "internalType": "address",
          "name": "asset",
          "type": "address"
        }
      ],
      "name": "getRewardsByAsset",
      "outputs": [
        {
          "internalType": "address[]",
          "name": "",
          "type": "address[]"
        }
      ],
      "stateMutability": "view",
      "type": "function"
    },
    {
      "inputs": [
        {
          "internalType": "address",
          "name": "asset",
          "type": "address"
        },
        {
          "internalType": "address",
          "name": "reward",
          "type": "address"
        }
      ],
      "name": "getRewardsData",
      "outputs": [
        {
          "internalType": "uint256",
          "name": "",
          "type": "uint256"
        },
        {
          "internalType": "uint256",
          "name": "",
          "type": "uint256"
        },
        {
          "internalType": "uint256",
          "name": "",
          "type": "uint256"
        },
        {
          "internalType": "uint256",
          "name": "",
          "type": "uint256"
        }
      ],
      "stateMutability": "view",
      "type": "function"
    },
    {
      "inputs": [],
      "name": "getRewardsList",
      "outputs": [
        {
          "internalType": "address[]",
          "name": "",
          "type": "address[]"
        }
      ],
      "stateMutability": "view",
      "type": "function"
    },
    {
      "inputs": [
        {
          "internalType": "address",
          "name": "reward",
          "type": "address"
        }
      ],
      "name": "getTransferStrategy",
      "outputs": [
        {
          "internalType": "address",
          "name": "",
          "type": "address"
        }
      ],
      "stateMutability": "view",
      "type": "function"
    },
    {
      "inputs": [
        {
          "internalType": "address",
          "name": "user",
          "type": "address"
        },
        {
          "internalType": "address",
          "name": "reward",
          "type": "address"
        }
      ],
      "name": "getUserAccruedRewards",
      "outputs": [
        {
          "internalType": "uint256",
          "name": "",
          "type": "uint256"
        }
      ],
      "stateMutability": "view",
      "type": "function"
    },
    {
      "inputs": [
        {
          "internalType": "address",
          "name": "user",
          "type": "address"
        },
        {
          "internalType": "address",
          "name": "asset",
          "type": "address"
        },
        {
          "internalType": "address",
          "name": "reward",
          "type": "address"
        }
      ],
      "name": "getUserAssetIndex",
      "outputs": [
        {
          "internalType": "uint256",
          "name": "",
          "type": "uint256"
        }
      ],
      "stateMutability": "view",
      "type": "function"
    },
    {
      "inputs": [
        {
          "internalType": "address[]",
          "name": "assets",
          "type": "address[]"
        },
        {
          "internalType": "address",
          "name": "user",
          "type": "address"
        },
        {
          "internalType": "address",
          "name": "reward",
          "type": "address"
        }
      ],
      "name": "getUserRewards",
      "outputs": [
        {
          "internalType": "uint256",
          "name": "",
          "type": "uint256"
        }
      ],
      "stateMutability": "view",
      "type": "function"
    },
    {
      "inputs": [
        {
          "internalType": "address",
          "name": "user",
          "type": "address"
        },
        {
          "internalType": "uint256",
          "name": "totalSupply",
          "type": "uint256"
        },
        {
          "internalType": "uint256",
          "name": "userBalance",
          "type": "uint256"
        }
      ],
      "name": "handleAction",
      "outputs": [],
      "stateMutability": "nonpayable",
      "type": "function"
    },
    {
      "inputs": [
        {
          "internalType": "address",
          "name": "emissionManager",
          "type": "address"
        }
      ],
      "name": "initialize",
      "outputs": [],
      "stateMutability": "nonpayable",
      "type": "function"
    },
    {
      "inputs": [
        {
          "internalType": "address",
          "name": "user",
          "type": "address"
        },
        {
          "internalType": "address",
          "name": "caller",
          "type": "address"
        }
      ],
      "name": "setClaimer",
      "outputs": [],
      "stateMutability": "nonpayable",
      "type": "function"
    },
    {
      "inputs": [
        {
          "internalType": "address",
          "name": "asset",
          "type": "address"
        },
        {
          "internalType": "address",
          "name": "reward",
          "type": "address"
        },
        {
          "internalType": "uint32",
          "name": "newDistributionEnd",
          "type": "uint32"
        }
      ],
      "name": "setDistributionEnd",
      "outputs": [],
      "stateMutability": "nonpayable",
      "type": "function"
    },
    {
      "inputs": [
        {
          "internalType": "address",
          "name": "emissionManager",
          "type": "address"
        }
      ],
      "name": "setEmissionManager",
      "outputs": [],
      "stateMutability": "nonpayable",
      "type": "function"
    },
    {
      "inputs": [
        {
          "internalType": "address",
          "name": "asset",
          "type": "address"
        },
        {
          "internalType": "address[]",
          "name": "rewards",
          "type": "address[]"
        },
        {
          "internalType": "uint88[]",
          "name": "newEmissionsPerSecond",
          "type": "uint88[]"
        }
      ],
      "name": "setEmissionPerSecond",
      "outputs": [],
      "stateMutability": "nonpayable",
      "type": "function"
    },
    {
      "inputs": [
        {
          "internalType": "address",
          "name": "reward",
          "type": "address"
        },
        {
          "internalType": "contract IEACAggregatorProxy",
          "name": "rewardOracle",
          "type": "address"
        }
      ],
      "name": "setRewardOracle",
      "outputs": [],
      "stateMutability": "nonpayable",
      "type": "function"
    },
    {
      "inputs": [
        {
          "internalType": "address",
          "name": "reward",
          "type": "address"
        },
        {
          "internalType": "contract ITransferStrategyBase",
          "name": "transferStrategy",
          "type": "address"
        }
      ],
      "name": "setTransferStrategy",
      "outputs": [],
      "stateMutability": "nonpayable",
      "type": "function"
    }
  ],
  "bytecode": "0x6080604052600060055534801561001557600080fd5b5061490d806100256000396000f3fe608060405234801561001057600080fd5b50600436106101da5760003560e01c8063886fe70b11610104578063bb492bf5116100a2578063dde43cba11610071578063dde43cba14610612578063e15ac6231461061a578063f5cf673b1461062d578063f996868b1461064057600080fd5b8063bb492bf5146105c6578063bf90f63a146105d9578063c4d66de8146105ec578063c5a7b538146105ff57600080fd5b80639efd6f72116100de5780639efd6f72146105365780639ff55db914610598578063b022418c146105ab578063b45ac1a9146105be57600080fd5b8063886fe70b146104dd57806392074b0814610505578063955c2ad71461052357600080fd5b8063533f542a1161017c5780636657732f1161014b5780636657732f1461039557806370674ab9146103b557806374d945ec146103c85780637eff4ba81461040157600080fd5b8063533f542a146102d25780635453ba101461033657806357b89883146103495780635f130b241461035c57600080fd5b806331873e2e116101b857806331873e2e1461027657806333028b991461028b5780634c0369c31461029e5780634f7459d5146102bf57600080fd5b80631b839c77146101df578063236300dc146102055780632a17bf6014610218575b600080fd5b6101f26101ed366004613ea5565b610653565b6040519081526020015b60405180910390f35b6101f2610213366004613f23565b6106b3565b610251610226366004613f97565b73ffffffffffffffffffffffffffffffffffffffff9081166000908152603b60205260409020541690565b60405173ffffffffffffffffffffffffffffffffffffffff90911681526020016101fc565b610289610284366004613fbb565b610750565b005b6101f2610299366004613ff0565b610761565b6102b16102ac366004614075565b61090d565b6040516101fc92919061411d565b6102896102cd366004613f97565b610c63565b6101f26102e0366004614174565b73ffffffffffffffffffffffffffffffffffffffff808316600090815260016020818152604080842086861685528252808420948816845293909101905220546cffffffffffffffffffffffffff169392505050565b610289610344366004613ea5565b610cf0565b6101f26103573660046141b4565b610d7f565b61025161036a366004613f97565b73ffffffffffffffffffffffffffffffffffffffff9081166000908152603a60205260409020541690565b6103a86103a3366004613f97565b610d99565b6040516101fc9190614213565b6101f26103c3366004614226565b610eeb565b6102516103d6366004613f97565b73ffffffffffffffffffffffffffffffffffffffff9081166000908152603960205260409020541690565b6104bd61040f366004613ea5565b73ffffffffffffffffffffffffffffffffffffffff91821660009081526001602090815260408083209390941682529190915220546cffffffffffffffffffffffffff8116916affffffffffffffffffffff6d01000000000000000000000000008304169163ffffffff780100000000000000000000000000000000000000000000000082048116927c01000000000000000000000000000000000000000000000000000000009092041690565b6040805194855260208501939093529183015260608201526080016101fc565b6104f06104eb366004613ea5565b610f02565b604080519283526020830191909152016101fc565b60005473ffffffffffffffffffffffffffffffffffffffff16610251565b61028961053136600461435e565b611011565b610586610544366004613f97565b73ffffffffffffffffffffffffffffffffffffffff16600090815260016020526040902060020154700100000000000000000000000000000000900460ff1690565b60405160ff90911681526020016101fc565b6102b16105a6366004614226565b6111f0565b6101f26105b9366004613ea5565b61139f565b6103a8611458565b6102b16105d4366004614075565b6114c7565b6102b16105e736600461448c565b611560565b6102896105fa366004613f97565b61157b565b61028961060d3660046144ce565b6116a0565b6101f2600281565b610289610628366004613ea5565b611838565b61028961063b366004613ea5565b6118c3565b61028961064e366004614515565b6119c0565b73ffffffffffffffffffffffffffffffffffffffff8281166000908152600160209081526040808320938516835292905220547c0100000000000000000000000000000000000000000000000000000000900463ffffffff165b92915050565b600073ffffffffffffffffffffffffffffffffffffffff8316610737576040517f08c379a000000000000000000000000000000000000000000000000000000000815260206004820152601260248201527f494e56414c49445f544f5f41444452455353000000000000000000000000000060448201526064015b60405180910390fd5b61074686868633338888611e16565b9695505050505050565b61075c338483856120a7565b505050565b73ffffffffffffffffffffffffffffffffffffffff8084166000908152603960205260408120549091339186911682146107f7576040517f08c379a000000000000000000000000000000000000000000000000000000000815260206004820152601460248201527f434c41494d45525f554e415554484f52495a4544000000000000000000000000604482015260640161072e565b73ffffffffffffffffffffffffffffffffffffffff8616610874576040517f08c379a000000000000000000000000000000000000000000000000000000000815260206004820152601460248201527f494e56414c49445f555345525f41444452455353000000000000000000000000604482015260640161072e565b73ffffffffffffffffffffffffffffffffffffffff85166108f1576040517f08c379a000000000000000000000000000000000000000000000000000000000815260206004820152601260248201527f494e56414c49445f544f5f414444524553530000000000000000000000000000604482015260640161072e565b610900898989338a8a8a611e16565b9998505050505050505050565b606080600061091d86868661225a565b60035490915067ffffffffffffffff81111561093b5761093b614283565b604051908082528060200260200182016040528015610964578160200160208202803683370190505b509250825167ffffffffffffffff81111561098157610981614283565b6040519080825280602002602001820160405280156109aa578160200160208202803683370190505b50915060005b8151811015610c585760005b8451811015610c4557600381815481106109d8576109d8614598565b9060005260206000200160009054906101000a900473ffffffffffffffffffffffffffffffffffffffff16858281518110610a1557610a15614598565b602002602001019073ffffffffffffffffffffffffffffffffffffffff16908173ffffffffffffffffffffffffffffffffffffffff168152505060016000848481518110610a6557610a65614598565b60200260200101516000015173ffffffffffffffffffffffffffffffffffffffff1673ffffffffffffffffffffffffffffffffffffffff1681526020019081526020016000206000016000868381518110610ac257610ac2614598565b602002602001015173ffffffffffffffffffffffffffffffffffffffff1673ffffffffffffffffffffffffffffffffffffffff16815260200190815260200160002060010160008773ffffffffffffffffffffffffffffffffffffffff1673ffffffffffffffffffffffffffffffffffffffff168152602001908152602001600020600001600d9054906101000a90046fffffffffffffffffffffffffffffffff166fffffffffffffffffffffffffffffffff16848281518110610b8857610b88614598565b60200260200101818151610b9c91906145f6565b9052508251839083908110610bb357610bb3614598565b60200260200101516020015160001415610bcc57610c33565b610c0986868381518110610be257610be2614598565b6020026020010151858581518110610bfc57610bfc614598565b6020026020010151612458565b848281518110610c1b57610c1b614598565b60200260200101818151610c2f91906145f6565b9052505b80610c3d8161460e565b9150506109bc565b5080610c508161460e565b9150506109b0565b50505b935093915050565b60005473ffffffffffffffffffffffffffffffffffffffff163314610ce4576040517f08c379a000000000000000000000000000000000000000000000000000000000815260206004820152601560248201527f4f4e4c595f454d495353494f4e5f4d414e414745520000000000000000000000604482015260640161072e565b610ced81612526565b50565b60005473ffffffffffffffffffffffffffffffffffffffff163314610d71576040517f08c379a000000000000000000000000000000000000000000000000000000000815260206004820152601560248201527f4f4e4c595f454d495353494f4e5f4d414e414745520000000000000000000000604482015260640161072e565b610d7b828261259b565b5050565b6000610d9085858533333388611e16565b95945050505050565b73ffffffffffffffffffffffffffffffffffffffff81166000908152600160205260408120600201546060916fffffffffffffffffffffffffffffffff909116908167ffffffffffffffff811115610df357610df3614283565b604051908082528060200260200182016040528015610e1c578160200160208202803683370190505b50905060005b826fffffffffffffffffffffffffffffffff16816fffffffffffffffffffffffffffffffff161015610ee35773ffffffffffffffffffffffffffffffffffffffff80861660009081526001602081815260408084206fffffffffffffffffffffffffffffffff871680865293019091529091205484519216918491908110610eac57610eac614598565b73ffffffffffffffffffffffffffffffffffffffff9092166020928302919091019091015280610edb81614647565b915050610e22565b509392505050565b6000610d908383610efd88888861225a565b6126ef565b73ffffffffffffffffffffffffffffffffffffffff8083166000818152600160209081526040808320948616835293815283822084517fb1bf962d00000000000000000000000000000000000000000000000000000000815294519294859491936110049385939263b1bf962d92600480830193928290030181865afa158015610f90573d6000803e3d6000fd5b505050506040513d601f19601f82011682018060405250810190610fb49190614677565b73ffffffffffffffffffffffffffffffffffffffff8816600090815260016020526040902060020154610fff90700100000000000000000000000000000000900460ff16600a6147b0565b61288e565b92509250505b9250929050565b60005473ffffffffffffffffffffffffffffffffffffffff163314611092576040517f08c379a000000000000000000000000000000000000000000000000000000000815260206004820152601560248201527f4f4e4c595f454d495353494f4e5f4d414e414745520000000000000000000000604482015260640161072e565b60005b81518110156111e6578181815181106110b0576110b0614598565b60200260200101516060015173ffffffffffffffffffffffffffffffffffffffff1663b1bf962d6040518163ffffffff1660e01b8152600401602060405180830381865afa158015611106573d6000803e3d6000fd5b505050506040513d601f19601f8201168201806040525081019061112a9190614677565b82828151811061113c5761113c614598565b6020026020010151602001818152505061119082828151811061116157611161614598565b60200260200101516080015183838151811061117f5761117f614598565b602002602001015160a0015161299a565b6111d48282815181106111a5576111a5614598565b6020026020010151608001518383815181106111c3576111c3614598565b602002602001015160c0015161259b565b806111de8161460e565b915050611095565b50610ced81612b00565b73ffffffffffffffffffffffffffffffffffffffff808316600090815260396020526040902054606091829133918691168214611289576040517f08c379a000000000000000000000000000000000000000000000000000000000815260206004820152601460248201527f434c41494d45525f554e415554484f52495a4544000000000000000000000000604482015260640161072e565b73ffffffffffffffffffffffffffffffffffffffff8616611306576040517f08c379a000000000000000000000000000000000000000000000000000000000815260206004820152601460248201527f494e56414c49445f555345525f41444452455353000000000000000000000000604482015260640161072e565b73ffffffffffffffffffffffffffffffffffffffff8516611383576040517f08c379a000000000000000000000000000000000000000000000000000000000815260206004820152601260248201527f494e56414c49445f544f5f414444524553530000000000000000000000000000604482015260640161072e565b61139088883389896133a1565b93509350505094509492505050565b60008060005b600454811015610ee35760016000600483815481106113c6576113c6614598565b60009182526020808320919091015473ffffffffffffffffffffffffffffffffffffffff908116845283820194909452604092830182208885168352815282822093891682526001909301909252902054611444906d010000000000000000000000000090046fffffffffffffffffffffffffffffffff16836145f6565b9150806114508161460e565b9150506113a5565b606060038054806020026020016040519081016040528092919081815260200182805480156114bd57602002820191906000526020600020905b815473ffffffffffffffffffffffffffffffffffffffff168152600190910190602001808311611492575b5050505050905090565b60608073ffffffffffffffffffffffffffffffffffffffff8316611547576040517f08c379a000000000000000000000000000000000000000000000000000000000815260206004820152601260248201527f494e56414c49445f544f5f414444524553530000000000000000000000000000604482015260640161072e565b61155485853333876133a1565b91509150935093915050565b60608061157084843333336133a1565b915091509250929050565b60065460029060ff168061158e5750303b155b8061159a575060055481115b611626576040517f08c379a000000000000000000000000000000000000000000000000000000000815260206004820152602e60248201527f436f6e747261637420696e7374616e63652068617320616c726561647920626560448201527f656e20696e697469616c697a6564000000000000000000000000000000000000606482015260840161072e565b60065460ff1615801561166457600680547fffffffffffffffffffffffffffffffffffffffffffffffffffffffffffffff0016600117905560058290555b61166d83612526565b801561075c57600680547fffffffffffffffffffffffffffffffffffffffffffffffffffffffffffffff00169055505050565b60005473ffffffffffffffffffffffffffffffffffffffff163314611721576040517f08c379a000000000000000000000000000000000000000000000000000000000815260206004820152601560248201527f4f4e4c595f454d495353494f4e5f4d414e414745520000000000000000000000604482015260640161072e565b73ffffffffffffffffffffffffffffffffffffffff83811660008181526001602090815260408083209487168084529482529182902080547bffffffffffffffffffffffffffffffffffffffffffffffffffffffff81167c010000000000000000000000000000000000000000000000000000000063ffffffff8981168281029384179586905587516d01000000000000000000000000009096046affffffffffffffffffffff16808752968601969096529083041694830185905260608301939093526cffffffffffffffffffffffffff9081169216919091176080820152909291907fac1777479f07f3e7c34da8402139d54027a6a260caaae168bdee825ca5580dc59060a00160405180910390a350505050565b60005473ffffffffffffffffffffffffffffffffffffffff1633146118b9576040517f08c379a000000000000000000000000000000000000000000000000000000000815260206004820152601560248201527f4f4e4c595f454d495353494f4e5f4d414e414745520000000000000000000000604482015260640161072e565b610d7b828261299a565b60005473ffffffffffffffffffffffffffffffffffffffff163314611944576040517f08c379a000000000000000000000000000000000000000000000000000000000815260206004820152601560248201527f4f4e4c595f454d495353494f4e5f4d414e414745520000000000000000000000604482015260640161072e565b73ffffffffffffffffffffffffffffffffffffffff82811660008181526039602052604080822080547fffffffffffffffffffffffff0000000000000000000000000000000000000000169486169485179055517f4925eafc82d0c4d67889898eeed64b18488ab19811e61620f387026dec126a289190a35050565b60005473ffffffffffffffffffffffffffffffffffffffff163314611a41576040517f08c379a000000000000000000000000000000000000000000000000000000000815260206004820152601560248201527f4f4e4c595f454d495353494f4e5f4d414e414745520000000000000000000000604482015260640161072e565b828114611aaa576040517f08c379a000000000000000000000000000000000000000000000000000000000815260206004820152600d60248201527f494e56414c49445f494e50555400000000000000000000000000000000000000604482015260640161072e565b60005b83811015611e0e5773ffffffffffffffffffffffffffffffffffffffff86166000908152600160205260408120908181888886818110611aef57611aef614598565b9050602002016020810190611b049190613f97565b73ffffffffffffffffffffffffffffffffffffffff16815260208101919091526040016000206002830154909150700100000000000000000000000000000000900460ff168015801590611b7a575081547801000000000000000000000000000000000000000000000000900463ffffffff1615155b611be0576040517f08c379a000000000000000000000000000000000000000000000000000000000815260206004820152601b60248201527f444953545249425554494f4e5f444f45535f4e4f545f45584953540000000000604482015260640161072e565b6000611c65838b73ffffffffffffffffffffffffffffffffffffffff1663b1bf962d6040518163ffffffff1660e01b8152600401602060405180830381865afa158015611c31573d6000803e3d6000fd5b505050506040513d601f19601f82011682018060405250810190611c559190614677565b611c6085600a6147bf565b613889565b5083549091506d010000000000000000000000000090046affffffffffffffffffffff16878787818110611c9b57611c9b614598565b9050602002016020810190611cb091906147cb565b84546affffffffffffffffffffff919091166d0100000000000000000000000000027fffffffffffffffff0000000000000000000000ffffffffffffffffffffffffff909116178455898987818110611d0b57611d0b614598565b9050602002016020810190611d209190613f97565b73ffffffffffffffffffffffffffffffffffffffff168b73ffffffffffffffffffffffffffffffffffffffff167fac1777479f07f3e7c34da8402139d54027a6a260caaae168bdee825ca5580dc5838b8b8b818110611d8157611d81614598565b9050602002016020810190611d9691906147cb565b8854604080519384526affffffffffffffffffffff90921660208401527c0100000000000000000000000000000000000000000000000000000000900463ffffffff1690820181905260608201526080810186905260a00160405180910390a350505050508080611e069061460e565b915050611aad565b505050505050565b600085611e255750600061209c565b6000611e3b85611e368b8b8961225a565b613a17565b60005b888110156120225760008a8a83818110611e5a57611e5a614598565b9050602002016020810190611e6f9190613f97565b73ffffffffffffffffffffffffffffffffffffffff81811660009081526001602081815260408084208b861685528252808420948d1684529390910190522054909150611edf906d010000000000000000000000000090046fffffffffffffffffffffffffffffffff16846145f6565b9250888311611f525773ffffffffffffffffffffffffffffffffffffffff80821660009081526001602081815260408084208a861685528252808420948c1684529390910190522080547fffffff00000000000000000000000000000000ffffffffffffffffffffffffff16905561200f565b6000611f5e8a856147e6565b9050611f6a81856147e6565b9350611f7581613a98565b73ffffffffffffffffffffffffffffffffffffffff92831660009081526001602081815260408084208b881685528252808420968d1684529590910190529290922080546fffffffffffffffffffffffffffffffff939093166d0100000000000000000000000000027fffffff00000000000000000000000000000000ffffffffffffffffffffffffff9093169290921790915550612022565b508061201a8161460e565b915050611e3e565b508061203257600091505061209c565b61203d848483613b3e565b6040805173ffffffffffffffffffffffffffffffffffffffff8881168252602082018490528087169286821692918916917fc052130bc4ef84580db505783484b067ea8b71b3bca78a7e12db7aea8658f004910160405180910390a490505b979650505050505050565b73ffffffffffffffffffffffffffffffffffffffff841660009081526001602052604090206002015460ff700100000000000000000000000000000000820416600a0a906fffffffffffffffffffffffffffffffff1680612109575050612254565b60005b81816fffffffffffffffffffffffffffffffff1610156122505773ffffffffffffffffffffffffffffffffffffffff80881660009081526001602081815260408084206fffffffffffffffffffffffffffffffff871685529283018252808420549094168084529190529181209080612186838989613889565b9150915060008061219a858d8d878d613c6a565b9150915082806121a75750805b1561223e578b73ffffffffffffffffffffffffffffffffffffffff168673ffffffffffffffffffffffffffffffffffffffff168e73ffffffffffffffffffffffffffffffffffffffff167f3303facd24627943a92e9dc87cfbb34b15c49b726eec3ad3487c16be9ab8efe8878887604051612235939291909283526020830191909152604082015260600190565b60405180910390a45b50506001909401935061210c92505050565b5050505b50505050565b60608267ffffffffffffffff81111561227557612275614283565b6040519080825280602002602001820160405280156122e057816020015b6122cd6040518060600160405280600073ffffffffffffffffffffffffffffffffffffffff16815260200160008152602001600081525090565b8152602001906001900390816122935790505b50905060005b83811015610ee35784848281811061230057612300614598565b90506020020160208101906123159190613f97565b82828151811061232757612327614598565b602090810291909101015173ffffffffffffffffffffffffffffffffffffffff909116905284848281811061235e5761235e614598565b90506020020160208101906123739190613f97565b6040517f0afbcdc900000000000000000000000000000000000000000000000000000000815273ffffffffffffffffffffffffffffffffffffffff85811660048301529190911690630afbcdc9906024016040805180830381865afa1580156123e0573d6000803e3d6000fd5b505050506040513d601f19601f8201168201806040525081019061240491906147fd565b83838151811061241657612416614598565b602002602001015160200184848151811061243357612433614598565b60209081029190910101516040019190915252806124508161460e565b9150506122e6565b805173ffffffffffffffffffffffffffffffffffffffff9081166000908152600160208181526040808420878616855282528084208651909516845291905281206002015490919082906124c490700100000000000000000000000000000000900460ff16600a6147b0565b905060006124d78386604001518461288e565b60208088015173ffffffffffffffffffffffffffffffffffffffff8b1660009081526001880190925260409091205491935061209c92509083906cffffffffffffffffffffffffff1685613dc9565b6000805473ffffffffffffffffffffffffffffffffffffffff8381167fffffffffffffffffffffffff0000000000000000000000000000000000000000831681178455604051919092169283917f53271355c244f99d37f622c90fe574eb7c35c7b3548ea276cf9b5b11c601605e9190a35050565b60008173ffffffffffffffffffffffffffffffffffffffff166350d25bcd6040518163ffffffff1660e01b8152600401602060405180830381865afa1580156125e8573d6000803e3d6000fd5b505050506040513d601f19601f8201168201806040525081019061260c9190614677565b13612673576040517f08c379a000000000000000000000000000000000000000000000000000000000815260206004820152601860248201527f4f5241434c455f4d5553545f52455455524e5f50524943450000000000000000604482015260640161072e565b73ffffffffffffffffffffffffffffffffffffffff8281166000818152603b602052604080822080547fffffffffffffffffffffffff0000000000000000000000000000000000000000169486169485179055517f1a1cd5483e52e60b9ff7f3b9d1db3bbd9e9d21c6324ad3a8c79dba9b75e62f4d9190a35050565b6000805b8251811015610ee35782818151811061270e5761270e614598565b602002602001015160200151600014156127bd576001600084838151811061273857612738614598565b6020908102919091018101515173ffffffffffffffffffffffffffffffffffffffff90811683528282019390935260409182016000908120888516825282528281209389168152600190930190529020546127b6906d010000000000000000000000000090046fffffffffffffffffffffffffffffffff16836145f6565b915061287c565b600160008483815181106127d3576127d3614598565b6020908102919091018101515173ffffffffffffffffffffffffffffffffffffffff908116835282820193909352604091820160009081208885168252825282812093891681526001909301905290205483516d01000000000000000000000000009091046fffffffffffffffffffffffffffffffff16906128659087908790879086908110610bfc57610bfc614598565b61286f91906145f6565b61287990836145f6565b91505b806128868161460e565b9150506126f3565b825460009081906cffffffffffffffffffffffffff81169063ffffffff7c010000000000000000000000000000000000000000000000000000000082048116916affffffffffffffffffffff6d010000000000000000000000000082041691780100000000000000000000000000000000000000000000000090910416811580612916575087155b8061292057504281145b8061292b5750828110155b1561293f5783849550955050505050610c5b565b600083421161294e5742612950565b835b9050600061295e83836147e6565b905060008961296d8387614821565b6129779190614821565b8b900490508661298781836145f6565b9850985050505050505050935093915050565b73ffffffffffffffffffffffffffffffffffffffff8116612a17576040517f08c379a000000000000000000000000000000000000000000000000000000000815260206004820152601860248201527f53545241544547595f43414e5f4e4f545f42455f5a45524f0000000000000000604482015260640161072e565b6001813b151514612a84576040517f08c379a000000000000000000000000000000000000000000000000000000000815260206004820152601960248201527f53545241544547595f4d5553545f42455f434f4e545241435400000000000000604482015260640161072e565b73ffffffffffffffffffffffffffffffffffffffff8281166000818152603a602052604080822080547fffffffffffffffffffffffff0000000000000000000000000000000000000000169486169485179055517f8ca1d928f1d72493a6b78c4f74aabde976bc37ffe2570f2a1ce5a8abd3dde0aa9190a35050565b60005b8151811015610d7b5760016000838381518110612b2257612b22614598565b6020908102919091018101516060015173ffffffffffffffffffffffffffffffffffffffff16825281019190915260400160002060020154700100000000000000000000000000000000900460ff16612bee576004828281518110612b8957612b89614598565b6020908102919091018101516060015182546001810184556000938452919092200180547fffffffffffffffffffffffff00000000000000000000000000000000000000001673ffffffffffffffffffffffffffffffffffffffff9092169190911790555b6000828281518110612c0257612c02614598565b60200260200101516060015173ffffffffffffffffffffffffffffffffffffffff1663313ce5676040518163ffffffff1660e01b8152600401602060405180830381865afa158015612c58573d6000803e3d6000fd5b505050506040513d601f19601f82011682018060405250810190612c7c919061485e565b60016000858581518110612c9257612c92614598565b60200260200101516060015173ffffffffffffffffffffffffffffffffffffffff1673ffffffffffffffffffffffffffffffffffffffff16815260200190815260200160002060020160106101000a81548160ff021916908360ff160217905560ff169050600060016000858581518110612d0f57612d0f614598565b60200260200101516060015173ffffffffffffffffffffffffffffffffffffffff1673ffffffffffffffffffffffffffffffffffffffff1681526020019081526020016000206000016000858581518110612d6c57612d6c614598565b6020908102919091018101516080015173ffffffffffffffffffffffffffffffffffffffff16825281019190915260400160002080549091507801000000000000000000000000000000000000000000000000900463ffffffff16612fdb57838381518110612ddd57612ddd614598565b60200260200101516080015160016000868681518110612dff57612dff614598565b60200260200101516060015173ffffffffffffffffffffffffffffffffffffffff1673ffffffffffffffffffffffffffffffffffffffff168152602001908152602001600020600101600060016000888881518110612e6057612e60614598565b60200260200101516060015173ffffffffffffffffffffffffffffffffffffffff1673ffffffffffffffffffffffffffffffffffffffff16815260200190815260200160002060020160009054906101000a90046fffffffffffffffffffffffffffffffff166fffffffffffffffffffffffffffffffff166fffffffffffffffffffffffffffffffff16815260200190815260200160002060006101000a81548173ffffffffffffffffffffffffffffffffffffffff021916908373ffffffffffffffffffffffffffffffffffffffff16021790555060016000858581518110612f4c57612f4c614598565b6020908102919091018101516060015173ffffffffffffffffffffffffffffffffffffffff168252810191909152604001600090812060020180546fffffffffffffffffffffffffffffffff1691612fa383614647565b91906101000a8154816fffffffffffffffffffffffffffffffff02191690836fffffffffffffffffffffffffffffffff160217905550505b60026000858581518110612ff157612ff1614598565b6020908102919091018101516080015173ffffffffffffffffffffffffffffffffffffffff1682528101919091526040016000205460ff1661311b5760016002600086868151811061304557613045614598565b60200260200101516080015173ffffffffffffffffffffffffffffffffffffffff1673ffffffffffffffffffffffffffffffffffffffff16815260200190815260200160002060006101000a81548160ff02191690831515021790555060038484815181106130b6576130b6614598565b6020908102919091018101516080015182546001810184556000938452919092200180547fffffffffffffffffffffffff00000000000000000000000000000000000000001673ffffffffffffffffffffffffffffffffffffffff9092169190911790555b600061314c8286868151811061313357613133614598565b60200260200101516020015185600a611c6091906147bf565b50825486519192506d010000000000000000000000000081046affffffffffffffffffffff16917c010000000000000000000000000000000000000000000000000000000090910463ffffffff16908790879081106131ad576131ad614598565b60209081029190910101515184546affffffffffffffffffffff9091166d0100000000000000000000000000027fffffffffffffffff0000000000000000000000ffffffffffffffffffffffffff909116178455865187908790811061321557613215614598565b602090810291909101015160400151845463ffffffff9091167c0100000000000000000000000000000000000000000000000000000000027bffffffffffffffffffffffffffffffffffffffffffffffffffffffff909116178455865187908790811061328457613284614598565b60200260200101516080015173ffffffffffffffffffffffffffffffffffffffff168787815181106132b8576132b8614598565b60200260200101516060015173ffffffffffffffffffffffffffffffffffffffff167fac1777479f07f3e7c34da8402139d54027a6a260caaae168bdee825ca5580dc5848a8a8151811061330e5761330e614598565b602002602001015160000151858c8c8151811061332d5761332d614598565b602002602001015160400151896040516133819594939291906affffffffffffffffffffff958616815293909416602084015263ffffffff9182166040840152166060820152608081019190915260a00190565b60405180910390a3505050505080806133999061460e565b915050612b03565b60035460609081908067ffffffffffffffff8111156133c2576133c2614283565b6040519080825280602002602001820160405280156133eb578160200160208202803683370190505b5092508067ffffffffffffffff81111561340757613407614283565b604051908082528060200260200182016040528015613430578160200160208202803683370190505b50915061344285611e368a8a8961225a565b60005b8781101561375157600089898381811061346157613461614598565b90506020020160208101906134769190613f97565b905060005b8381101561373c57600073ffffffffffffffffffffffffffffffffffffffff168682815181106134ad576134ad614598565b602002602001015173ffffffffffffffffffffffffffffffffffffffff16141561355c57600381815481106134e4576134e4614598565b9060005260206000200160009054906101000a900473ffffffffffffffffffffffffffffffffffffffff1686828151811061352157613521614598565b602002602001019073ffffffffffffffffffffffffffffffffffffffff16908173ffffffffffffffffffffffffffffffffffffffff16815250505b73ffffffffffffffffffffffffffffffffffffffff821660009081526001602052604081208751829089908590811061359757613597614598565b60209081029190910181015173ffffffffffffffffffffffffffffffffffffffff90811683528282019390935260409182016000908120938d168152600190930190529020546d010000000000000000000000000090046fffffffffffffffffffffffffffffffff1690508015613729578086838151811061361b5761361b614598565b6020026020010181815161362f91906145f6565b90525073ffffffffffffffffffffffffffffffffffffffff83166000908152600160205260408120885182908a908690811061366d5761366d614598565b602002602001015173ffffffffffffffffffffffffffffffffffffffff1673ffffffffffffffffffffffffffffffffffffffff16815260200190815260200160002060010160008b73ffffffffffffffffffffffffffffffffffffffff1673ffffffffffffffffffffffffffffffffffffffff168152602001908152602001600020600001600d6101000a8154816fffffffffffffffffffffffffffffffff02191690836fffffffffffffffffffffffffffffffff1602179055505b50806137348161460e565b91505061347b565b505080806137499061460e565b915050613445565b5060005b8181101561387d5761379a8585838151811061377357613773614598565b602002602001015185848151811061378d5761378d614598565b6020026020010151613b3e565b8473ffffffffffffffffffffffffffffffffffffffff168482815181106137c3576137c3614598565b602002602001015173ffffffffffffffffffffffffffffffffffffffff168773ffffffffffffffffffffffffffffffffffffffff167fc052130bc4ef84580db505783484b067ea8b71b3bca78a7e12db7aea8658f0048a87868151811061382c5761382c614598565b602002602001015160405161386392919073ffffffffffffffffffffffffffffffffffffffff929092168252602082015260400190565b60405180910390a4806138758161460e565b915050613755565b50509550959350505050565b60008060008061389a87878761288e565b9150915060008282146139b3576cffffffffffffffffffffffffff82111561391e576040517f08c379a000000000000000000000000000000000000000000000000000000000815260206004820152600e60248201527f494e4445585f4f564552464c4f57000000000000000000000000000000000000604482015260640161072e565b5086547fffffffffffffffffffffffffffffffffffffff00000000000000000000000000166cffffffffffffffffffffffffff8216178755600161396142613ded565b885463ffffffff919091167801000000000000000000000000000000000000000000000000027fffffffff00000000ffffffffffffffffffffffffffffffffffffffffffffffff909116178855613a0a565b6139bc42613ded565b885463ffffffff919091167801000000000000000000000000000000000000000000000000027fffffffff00000000ffffffffffffffffffffffffffffffffffffffffffffffff9091161788555b9097909650945050505050565b60005b815181101561075c57613a86828281518110613a3857613a38614598565b60200260200101516000015184848481518110613a5757613a57614598565b602002602001015160200151858581518110613a7557613a75614598565b6020026020010151604001516120a7565b80613a908161460e565b915050613a1a565b60006fffffffffffffffffffffffffffffffff821115613b3a576040517f08c379a000000000000000000000000000000000000000000000000000000000815260206004820152602760248201527f53616665436173743a2076616c756520646f65736e27742066697420696e203160448201527f3238206269747300000000000000000000000000000000000000000000000000606482015260840161072e565b5090565b73ffffffffffffffffffffffffffffffffffffffff8281166000818152603a60205260408082205490517f16beb9820000000000000000000000000000000000000000000000000000000081528785166004820152602481019390935260448301859052909216919082906316beb982906064016020604051808303816000875af1158015613bd1573d6000803e3d6000fd5b505050506040513d601f19601f82011682018060405250810190613bf59190614881565b9050600181151514613c63576040517f08c379a000000000000000000000000000000000000000000000000000000000815260206004820152600e60248201527f5452414e534645525f4552524f52000000000000000000000000000000000000604482015260640161072e565b5050505050565b73ffffffffffffffffffffffffffffffffffffffff8416600090815260018601602052604081205481906cffffffffffffffffffffffffff1681858214801590613dba5773ffffffffffffffffffffffffffffffffffffffff8916600090815260018b016020526040902080547fffffffffffffffffffffffffffffffffffffff00000000000000000000000000166cffffffffffffffffffffffffff89161790558715613dba57613d1e88888589613dc9565b9150613d2982613a98565b73ffffffffffffffffffffffffffffffffffffffff8a16600090815260018c01602052604090208054600d90613d839084906d010000000000000000000000000090046fffffffffffffffffffffffffffffffff166148a3565b92506101000a8154816fffffffffffffffffffffffffffffffff02191690836fffffffffffffffffffffffffffffffff1602179055505b90999098509650505050505050565b600080613dd684866147e6565b613de09087614821565b9290920495945050505050565b600063ffffffff821115613b3a576040517f08c379a000000000000000000000000000000000000000000000000000000000815260206004820152602660248201527f53616665436173743a2076616c756520646f65736e27742066697420696e203360448201527f3220626974730000000000000000000000000000000000000000000000000000606482015260840161072e565b73ffffffffffffffffffffffffffffffffffffffff81168114610ced57600080fd5b60008060408385031215613eb857600080fd5b8235613ec381613e83565b91506020830135613ed381613e83565b809150509250929050565b60008083601f840112613ef057600080fd5b50813567ffffffffffffffff811115613f0857600080fd5b6020830191508360208260051b850101111561100a57600080fd5b600080600080600060808688031215613f3b57600080fd5b853567ffffffffffffffff811115613f5257600080fd5b613f5e88828901613ede565b909650945050602086013592506040860135613f7981613e83565b91506060860135613f8981613e83565b809150509295509295909350565b600060208284031215613fa957600080fd5b8135613fb481613e83565b9392505050565b600080600060608486031215613fd057600080fd5b8335613fdb81613e83565b95602085013595506040909401359392505050565b60008060008060008060a0878903121561400957600080fd5b863567ffffffffffffffff81111561402057600080fd5b61402c89828a01613ede565b90975095505060208701359350604087013561404781613e83565b9250606087013561405781613e83565b9150608087013561406781613e83565b809150509295509295509295565b60008060006040848603121561408a57600080fd5b833567ffffffffffffffff8111156140a157600080fd5b6140ad86828701613ede565b90945092505060208401356140c181613e83565b809150509250925092565b600081518084526020808501945080840160005b8381101561411257815173ffffffffffffffffffffffffffffffffffffffff16875295820195908201906001016140e0565b509495945050505050565b60408152600061413060408301856140cc565b82810360208481019190915284518083528582019282019060005b818110156141675784518352938301939183019160010161414b565b5090979650505050505050565b60008060006060848603121561418957600080fd5b833561419481613e83565b925060208401356141a481613e83565b915060408401356140c181613e83565b600080600080606085870312156141ca57600080fd5b843567ffffffffffffffff8111156141e157600080fd5b6141ed87828801613ede565b90955093505060208501359150604085013561420881613e83565b939692955090935050565b602081526000613fb460208301846140cc565b6000806000806060858703121561423c57600080fd5b843567ffffffffffffffff81111561425357600080fd5b61425f87828801613ede565b909550935050602085013561427381613e83565b9150604085013561420881613e83565b7f4e487b7100000000000000000000000000000000000000000000000000000000600052604160045260246000fd5b60405160e0810167ffffffffffffffff811182821017156142d5576142d5614283565b60405290565b604051601f82017fffffffffffffffffffffffffffffffffffffffffffffffffffffffffffffffe016810167ffffffffffffffff8111828210171561432257614322614283565b604052919050565b80356affffffffffffffffffffff8116811461434557600080fd5b919050565b803563ffffffff8116811461434557600080fd5b6000602080838503121561437157600080fd5b823567ffffffffffffffff8082111561438957600080fd5b818501915085601f83011261439d57600080fd5b8135818111156143af576143af614283565b6143bd848260051b016142db565b818152848101925060e09182028401850191888311156143dc57600080fd5b938501935b828510156144805780858a0312156143f95760008081fd5b6144016142b2565b61440a8661432a565b81528686013587820152604061442181880161434a565b9082015260608681013561443481613e83565b9082015260808681013561444781613e83565b9082015260a08681013561445a81613e83565b9082015260c08681013561446d81613e83565b90820152845293840193928501926143e1565b50979650505050505050565b6000806020838503121561449f57600080fd5b823567ffffffffffffffff8111156144b657600080fd5b6144c285828601613ede565b90969095509350505050565b6000806000606084860312156144e357600080fd5b83356144ee81613e83565b925060208401356144fe81613e83565b915061450c6040850161434a565b90509250925092565b60008060008060006060868803121561452d57600080fd5b853561453881613e83565b9450602086013567ffffffffffffffff8082111561455557600080fd5b61456189838a01613ede565b9096509450604088013591508082111561457a57600080fd5b5061458788828901613ede565b969995985093965092949392505050565b7f4e487b7100000000000000000000000000000000000000000000000000000000600052603260045260246000fd5b7f4e487b7100000000000000000000000000000000000000000000000000000000600052601160045260246000fd5b60008219821115614609576146096145c7565b500190565b60007fffffffffffffffffffffffffffffffffffffffffffffffffffffffffffffffff821415614640576146406145c7565b5060010190565b60006fffffffffffffffffffffffffffffffff8083168181141561466d5761466d6145c7565b6001019392505050565b60006020828403121561468957600080fd5b5051919050565b600181815b808511156146e957817fffffffffffffffffffffffffffffffffffffffffffffffffffffffffffffffff048211156146cf576146cf6145c7565b808516156146dc57918102915b93841c9390800290614695565b509250929050565b600082614700575060016106ad565b8161470d575060006106ad565b8160018114614723576002811461472d57614749565b60019150506106ad565b60ff84111561473e5761473e6145c7565b50506001821b6106ad565b5060208310610133831016604e8410600b841016171561476c575081810a6106ad565b6147768383614690565b807fffffffffffffffffffffffffffffffffffffffffffffffffffffffffffffffff048211156147a8576147a86145c7565b029392505050565b6000613fb460ff8416836146f1565b6000613fb483836146f1565b6000602082840312156147dd57600080fd5b613fb48261432a565b6000828210156147f8576147f86145c7565b500390565b6000806040838503121561481057600080fd5b505080516020909101519092909150565b6000817fffffffffffffffffffffffffffffffffffffffffffffffffffffffffffffffff0483118215151615614859576148596145c7565b500290565b60006020828403121561487057600080fd5b815160ff81168114613fb457600080fd5b60006020828403121561489357600080fd5b81518015158114613fb457600080fd5b60006fffffffffffffffffffffffffffffffff8083168185168083038211156148ce576148ce6145c7565b0194935050505056fea26469706673582212201bf3e617696eabb2b4413f711622065dcead083a710c773b5de165b13f8cc74764736f6c634300080a0033",
  "linkReferences": {},
  "deployedLinkReferences": {}
}