{
  "_format": "hh-sol-artifact-1",
  "contractName": "MockParaSwapAugustusRegistry",
  "sourceName": "contracts/mocks/swap/MockParaSwapAugustusRegistry.sol",
  "abi": [
    {
      "inputs": [
        {
          "internalType": "address",
          "name": "augustus",
          "type": "address"
        }
      ],
      "stateMutability": "nonpayable",
      "type": "constructor"
    },
    {
      "inputs": [
        {
          "internalType": "address",
          "name": "augustus",
          "type": "address"
        }
      ],
      "name": "isValidAugustus",
      "outputs": [
        {
          "internalType": "bool",
          "name": "",
          "type": "bool"
        }
      ],
      "stateMutability": "view",
      "type": "function"
    }
  ],
  "bytecode": "0x60a060405234801561001057600080fd5b5060405161018438038061018483398101604081905261002f91610040565b6001600160a01b0316608052610070565b60006020828403121561005257600080fd5b81516001600160a01b038116811461006957600080fd5b9392505050565b60805160fc6100886000396000603a015260fc6000f3fe6080604052348015600f57600080fd5b506004361060285760003560e01c8063fb04e17b14602d575b600080fd5b60776038366004608b565b7f000000000000000000000000000000000000000000000000000000000000000073ffffffffffffffffffffffffffffffffffffffff90811691161490565b604051901515815260200160405180910390f35b600060208284031215609c57600080fd5b813573ffffffffffffffffffffffffffffffffffffffff8116811460bf57600080fd5b939250505056fea2646970667358221220412151c0dc108e7faecd0f2a0ef18ac2448e28c5190974bbf528192738276b3d64736f6c634300080a0033",
  "linkReferences": {},
  "deployedLinkReferences": {}
}