{
  "_format": "hh-sol-artifact-1",
  "contractName": "UiIncentiveDataProviderV3",
  "sourceName": "contracts/misc/UiIncentiveDataProviderV3.sol",
  "abi": [
    {
      "inputs": [
        {
          "internalType": "contract IPoolAddressesProvider",
          "name": "provider",
          "type": "address"
        },
        {
          "internalType": "address",
          "name": "user",
          "type": "address"
        }
      ],
      "name": "getFullReservesIncentiveData",
      "outputs": [
        {
          "components": [
            {
              "internalType": "address",
              "name": "underlyingAsset",
              "type": "address"
            },
            {
              "components": [
                {
                  "internalType": "address",
                  "name": "tokenAddress",
                  "type": "address"
                },
                {
                  "internalType": "address",
                  "name": "incentiveControllerAddress",
                  "type": "address"
                },
                {
                  "components": [
                    {
                      "internalType": "string",
                      "name": "rewardTokenSymbol",
                      "type": "string"
                    },
                    {
                      "internalType": "address",
                      "name": "rewardTokenAddress",
                      "type": "address"
                    },
                    {
                      "internalType": "address",
                      "name": "rewardOracleAddress",
                      "type": "address"
                    },
                    {
                      "internalType": "uint256",
                      "name": "emissionPerSecond",
                      "type": "uint256"
                    },
                    {
                      "internalType": "uint256",
                      "name": "incentivesLastUpdateTimestamp",
                      "type": "uint256"
                    },
                    {
                      "internalType": "uint256",
                      "name": "tokenIncentivesIndex",
                      "type": "uint256"
                    },
                    {
                      "internalType": "uint256",
                      "name": "emissionEndTimestamp",
                      "type": "uint256"
                    },
                    {
                      "internalType": "int256",
                      "name": "rewardPriceFeed",
                      "type": "int256"
                    },
                    {
                      "internalType": "uint8",
                      "name": "rewardTokenDecimals",
                      "type": "uint8"
                    },
                    {
                      "internalType": "uint8",
                      "name": "precision",
                      "type": "uint8"
                    },
                    {
                      "internalType": "uint8",
                      "name": "priceFeedDecimals",
                      "type": "uint8"
                    }
                  ],
                  "internalType": "struct IUiIncentiveDataProviderV3.RewardInfo[]",
                  "name": "rewardsTokenInformation",
                  "type": "tuple[]"
                }
              ],
              "internalType": "struct IUiIncentiveDataProviderV3.IncentiveData",
              "name": "aIncentiveData",
              "type": "tuple"
            },
            {
              "components": [
                {
                  "internalType": "address",
                  "name": "tokenAddress",
                  "type": "address"
                },
                {
                  "internalType": "address",
                  "name": "incentiveControllerAddress",
                  "type": "address"
                },
                {
                  "components": [
                    {
                      "internalType": "string",
                      "name": "rewardTokenSymbol",
                      "type": "string"
                    },
                    {
                      "internalType": "address",
                      "name": "rewardTokenAddress",
                      "type": "address"
                    },
                    {
                      "internalType": "address",
                      "name": "rewardOracleAddress",
                      "type": "address"
                    },
                    {
                      "internalType": "uint256",
                      "name": "emissionPerSecond",
                      "type": "uint256"
                    },
                    {
                      "internalType": "uint256",
                      "name": "incentivesLastUpdateTimestamp",
                      "type": "uint256"
                    },
                    {
                      "internalType": "uint256",
                      "name": "tokenIncentivesIndex",
                      "type": "uint256"
                    },
                    {
                      "internalType": "uint256",
                      "name": "emissionEndTimestamp",
                      "type": "uint256"
                    },
                    {
                      "internalType": "int256",
                      "name": "rewardPriceFeed",
                      "type": "int256"
                    },
                    {
                      "internalType": "uint8",
                      "name": "rewardTokenDecimals",
                      "type": "uint8"
                    },
                    {
                      "internalType": "uint8",
                      "name": "precision",
                      "type": "uint8"
                    },
                    {
                      "internalType": "uint8",
                      "name": "priceFeedDecimals",
                      "type": "uint8"
                    }
                  ],
                  "internalType": "struct IUiIncentiveDataProviderV3.RewardInfo[]",
                  "name": "rewardsTokenInformation",
                  "type": "tuple[]"
                }
              ],
              "internalType": "struct IUiIncentiveDataProviderV3.IncentiveData",
              "name": "vIncentiveData",
              "type": "tuple"
            },
            {
              "components": [
                {
                  "internalType": "address",
                  "name": "tokenAddress",
                  "type": "address"
                },
                {
                  "internalType": "address",
                  "name": "incentiveControllerAddress",
                  "type": "address"
                },
                {
                  "components": [
                    {
                      "internalType": "string",
                      "name": "rewardTokenSymbol",
                      "type": "string"
                    },
                    {
                      "internalType": "address",
                      "name": "rewardTokenAddress",
                      "type": "address"
                    },
                    {
                      "internalType": "address",
                      "name": "rewardOracleAddress",
                      "type": "address"
                    },
                    {
                      "internalType": "uint256",
                      "name": "emissionPerSecond",
                      "type": "uint256"
                    },
                    {
                      "internalType": "uint256",
                      "name": "incentivesLastUpdateTimestamp",
                      "type": "uint256"
                    },
                    {
                      "internalType": "uint256",
                      "name": "tokenIncentivesIndex",
                      "type": "uint256"
                    },
                    {
                      "internalType": "uint256",
                      "name": "emissionEndTimestamp",
                      "type": "uint256"
                    },
                    {
                      "internalType": "int256",
                      "name": "rewardPriceFeed",
                      "type": "int256"
                    },
                    {
                      "internalType": "uint8",
                      "name": "rewardTokenDecimals",
                      "type": "uint8"
                    },
                    {
                      "internalType": "uint8",
                      "name": "precision",
                      "type": "uint8"
                    },
                    {
                      "internalType": "uint8",
                      "name": "priceFeedDecimals",
                      "type": "uint8"
                    }
                  ],
                  "internalType": "struct IUiIncentiveDataProviderV3.RewardInfo[]",
                  "name": "rewardsTokenInformation",
                  "type": "tuple[]"
                }
              ],
              "internalType": "struct IUiIncentiveDataProviderV3.IncentiveData",
              "name": "sIncentiveData",
              "type": "tuple"
            }
          ],
          "internalType": "struct IUiIncentiveDataProviderV3.AggregatedReserveIncentiveData[]",
          "name": "",
          "type": "tuple[]"
        },
        {
          "components": [
            {
              "internalType": "address",
              "name": "underlyingAsset",
              "type": "address"
            },
            {
              "components": [
                {
                  "internalType": "address",
                  "name": "tokenAddress",
                  "type": "address"
                },
                {
                  "internalType": "address",
                  "name": "incentiveControllerAddress",
                  "type": "address"
                },
                {
                  "components": [
                    {
                      "internalType": "string",
                      "name": "rewardTokenSymbol",
                      "type": "string"
                    },
                    {
                      "internalType": "address",
                      "name": "rewardOracleAddress",
                      "type": "address"
                    },
                    {
                      "internalType": "address",
                      "name": "rewardTokenAddress",
                      "type": "address"
                    },
                    {
                      "internalType": "uint256",
                      "name": "userUnclaimedRewards",
                      "type": "uint256"
                    },
                    {
                      "internalType": "uint256",
                      "name": "tokenIncentivesUserIndex",
                      "type": "uint256"
                    },
                    {
                      "internalType": "int256",
                      "name": "rewardPriceFeed",
                      "type": "int256"
                    },
                    {
                      "internalType": "uint8",
                      "name": "priceFeedDecimals",
                      "type": "uint8"
                    },
                    {
                      "internalType": "uint8",
                      "name": "rewardTokenDecimals",
                      "type": "uint8"
                    }
                  ],
                  "internalType": "struct IUiIncentiveDataProviderV3.UserRewardInfo[]",
                  "name": "userRewardsInformation",
                  "type": "tuple[]"
                }
              ],
              "internalType": "struct IUiIncentiveDataProviderV3.UserIncentiveData",
              "name": "aTokenIncentivesUserData",
              "type": "tuple"
            },
            {
              "components": [
                {
                  "internalType": "address",
                  "name": "tokenAddress",
                  "type": "address"
                },
                {
                  "internalType": "address",
                  "name": "incentiveControllerAddress",
                  "type": "address"
                },
                {
                  "components": [
                    {
                      "internalType": "string",
                      "name": "rewardTokenSymbol",
                      "type": "string"
                    },
                    {
                      "internalType": "address",
                      "name": "rewardOracleAddress",
                      "type": "address"
                    },
                    {
                      "internalType": "address",
                      "name": "rewardTokenAddress",
                      "type": "address"
                    },
                    {
                      "internalType": "uint256",
                      "name": "userUnclaimedRewards",
                      "type": "uint256"
                    },
                    {
                      "internalType": "uint256",
                      "name": "tokenIncentivesUserIndex",
                      "type": "uint256"
                    },
                    {
                      "internalType": "int256",
                      "name": "rewardPriceFeed",
                      "type": "int256"
                    },
                    {
                      "internalType": "uint8",
                      "name": "priceFeedDecimals",
                      "type": "uint8"
                    },
                    {
                      "internalType": "uint8",
                      "name": "rewardTokenDecimals",
                      "type": "uint8"
                    }
                  ],
                  "internalType": "struct IUiIncentiveDataProviderV3.UserRewardInfo[]",
                  "name": "userRewardsInformation",
                  "type": "tuple[]"
                }
              ],
              "internalType": "struct IUiIncentiveDataProviderV3.UserIncentiveData",
              "name": "vTokenIncentivesUserData",
              "type": "tuple"
            },
            {
              "components": [
                {
                  "internalType": "address",
                  "name": "tokenAddress",
                  "type": "address"
                },
                {
                  "internalType": "address",
                  "name": "incentiveControllerAddress",
                  "type": "address"
                },
                {
                  "components": [
                    {
                      "internalType": "string",
                      "name": "rewardTokenSymbol",
                      "type": "string"
                    },
                    {
                      "internalType": "address",
                      "name": "rewardOracleAddress",
                      "type": "address"
                    },
                    {
                      "internalType": "address",
                      "name": "rewardTokenAddress",
                      "type": "address"
                    },
                    {
                      "internalType": "uint256",
                      "name": "userUnclaimedRewards",
                      "type": "uint256"
                    },
                    {
                      "internalType": "uint256",
                      "name": "tokenIncentivesUserIndex",
                      "type": "uint256"
                    },
                    {
                      "internalType": "int256",
                      "name": "rewardPriceFeed",
                      "type": "int256"
                    },
                    {
                      "internalType": "uint8",
                      "name": "priceFeedDecimals",
                      "type": "uint8"
                    },
                    {
                      "internalType": "uint8",
                      "name": "rewardTokenDecimals",
                      "type": "uint8"
                    }
                  ],
                  "internalType": "struct IUiIncentiveDataProviderV3.UserRewardInfo[]",
                  "name": "userRewardsInformation",
                  "type": "tuple[]"
                }
              ],
              "internalType": "struct IUiIncentiveDataProviderV3.UserIncentiveData",
              "name": "sTokenIncentivesUserData",
              "type": "tuple"
            }
          ],
          "internalType": "struct IUiIncentiveDataProviderV3.UserReserveIncentiveData[]",
          "name": "",
          "type": "tuple[]"
        }
      ],
      "stateMutability": "view",
      "type": "function"
    },
    {
      "inputs": [
        {
          "internalType": "contract IPoolAddressesProvider",
          "name": "provider",
          "type": "address"
        }
      ],
      "name": "getReservesIncentivesData",
      "outputs": [
        {
          "components": [
            {
              "internalType": "address",
              "name": "underlyingAsset",
              "type": "address"
            },
            {
              "components": [
                {
                  "internalType": "address",
                  "name": "tokenAddress",
                  "type": "address"
                },
                {
                  "internalType": "address",
                  "name": "incentiveControllerAddress",
                  "type": "address"
                },
                {
                  "components": [
                    {
                      "internalType": "string",
                      "name": "rewardTokenSymbol",
                      "type": "string"
                    },
                    {
                      "internalType": "address",
                      "name": "rewardTokenAddress",
                      "type": "address"
                    },
                    {
                      "internalType": "address",
                      "name": "rewardOracleAddress",
                      "type": "address"
                    },
                    {
                      "internalType": "uint256",
                      "name": "emissionPerSecond",
                      "type": "uint256"
                    },
                    {
                      "internalType": "uint256",
                      "name": "incentivesLastUpdateTimestamp",
                      "type": "uint256"
                    },
                    {
                      "internalType": "uint256",
                      "name": "tokenIncentivesIndex",
                      "type": "uint256"
                    },
                    {
                      "internalType": "uint256",
                      "name": "emissionEndTimestamp",
                      "type": "uint256"
                    },
                    {
                      "internalType": "int256",
                      "name": "rewardPriceFeed",
                      "type": "int256"
                    },
                    {
                      "internalType": "uint8",
                      "name": "rewardTokenDecimals",
                      "type": "uint8"
                    },
                    {
                      "internalType": "uint8",
                      "name": "precision",
                      "type": "uint8"
                    },
                    {
                      "internalType": "uint8",
                      "name": "priceFeedDecimals",
                      "type": "uint8"
                    }
                  ],
                  "internalType": "struct IUiIncentiveDataProviderV3.RewardInfo[]",
                  "name": "rewardsTokenInformation",
                  "type": "tuple[]"
                }
              ],
              "internalType": "struct IUiIncentiveDataProviderV3.IncentiveData",
              "name": "aIncentiveData",
              "type": "tuple"
            },
            {
              "components": [
                {
                  "internalType": "address",
                  "name": "tokenAddress",
                  "type": "address"
                },
                {
                  "internalType": "address",
                  "name": "incentiveControllerAddress",
                  "type": "address"
                },
                {
                  "components": [
                    {
                      "internalType": "string",
                      "name": "rewardTokenSymbol",
                      "type": "string"
                    },
                    {
                      "internalType": "address",
                      "name": "rewardTokenAddress",
                      "type": "address"
                    },
                    {
                      "internalType": "address",
                      "name": "rewardOracleAddress",
                      "type": "address"
                    },
                    {
                      "internalType": "uint256",
                      "name": "emissionPerSecond",
                      "type": "uint256"
                    },
                    {
                      "internalType": "uint256",
                      "name": "incentivesLastUpdateTimestamp",
                      "type": "uint256"
                    },
                    {
                      "internalType": "uint256",
                      "name": "tokenIncentivesIndex",
                      "type": "uint256"
                    },
                    {
                      "internalType": "uint256",
                      "name": "emissionEndTimestamp",
                      "type": "uint256"
                    },
                    {
                      "internalType": "int256",
                      "name": "rewardPriceFeed",
                      "type": "int256"
                    },
                    {
                      "internalType": "uint8",
                      "name": "rewardTokenDecimals",
                      "type": "uint8"
                    },
                    {
                      "internalType": "uint8",
                      "name": "precision",
                      "type": "uint8"
                    },
                    {
                      "internalType": "uint8",
                      "name": "priceFeedDecimals",
                      "type": "uint8"
                    }
                  ],
                  "internalType": "struct IUiIncentiveDataProviderV3.RewardInfo[]",
                  "name": "rewardsTokenInformation",
                  "type": "tuple[]"
                }
              ],
              "internalType": "struct IUiIncentiveDataProviderV3.IncentiveData",
              "name": "vIncentiveData",
              "type": "tuple"
            },
            {
              "components": [
                {
                  "internalType": "address",
                  "name": "tokenAddress",
                  "type": "address"
                },
                {
                  "internalType": "address",
                  "name": "incentiveControllerAddress",
                  "type": "address"
                },
                {
                  "components": [
                    {
                      "internalType": "string",
                      "name": "rewardTokenSymbol",
                      "type": "string"
                    },
                    {
                      "internalType": "address",
                      "name": "rewardTokenAddress",
                      "type": "address"
                    },
                    {
                      "internalType": "address",
                      "name": "rewardOracleAddress",
                      "type": "address"
                    },
                    {
                      "internalType": "uint256",
                      "name": "emissionPerSecond",
                      "type": "uint256"
                    },
                    {
                      "internalType": "uint256",
                      "name": "incentivesLastUpdateTimestamp",
                      "type": "uint256"
                    },
                    {
                      "internalType": "uint256",
                      "name": "tokenIncentivesIndex",
                      "type": "uint256"
                    },
                    {
                      "internalType": "uint256",
                      "name": "emissionEndTimestamp",
                      "type": "uint256"
                    },
                    {
                      "internalType": "int256",
                      "name": "rewardPriceFeed",
                      "type": "int256"
                    },
                    {
                      "internalType": "uint8",
                      "name": "rewardTokenDecimals",
                      "type": "uint8"
                    },
                    {
                      "internalType": "uint8",
                      "name": "precision",
                      "type": "uint8"
                    },
                    {
                      "internalType": "uint8",
                      "name": "priceFeedDecimals",
                      "type": "uint8"
                    }
                  ],
                  "internalType": "struct IUiIncentiveDataProviderV3.RewardInfo[]",
                  "name": "rewardsTokenInformation",
                  "type": "tuple[]"
                }
              ],
              "internalType": "struct IUiIncentiveDataProviderV3.IncentiveData",
              "name": "sIncentiveData",
              "type": "tuple"
            }
          ],
          "internalType": "struct IUiIncentiveDataProviderV3.AggregatedReserveIncentiveData[]",
          "name": "",
          "type": "tuple[]"
        }
      ],
      "stateMutability": "view",
      "type": "function"
    },
    {
      "inputs": [
        {
          "internalType": "contract IPoolAddressesProvider",
          "name": "provider",
          "type": "address"
        },
        {
          "internalType": "address",
          "name": "user",
          "type": "address"
        }
      ],
      "name": "getUserReservesIncentivesData",
      "outputs": [
        {
          "components": [
            {
              "internalType": "address",
              "name": "underlyingAsset",
              "type": "address"
            },
            {
              "components": [
                {
                  "internalType": "address",
                  "name": "tokenAddress",
                  "type": "address"
                },
                {
                  "internalType": "address",
                  "name": "incentiveControllerAddress",
                  "type": "address"
                },
                {
                  "components": [
                    {
                      "internalType": "string",
                      "name": "rewardTokenSymbol",
                      "type": "string"
                    },
                    {
                      "internalType": "address",
                      "name": "rewardOracleAddress",
                      "type": "address"
                    },
                    {
                      "internalType": "address",
                      "name": "rewardTokenAddress",
                      "type": "address"
                    },
                    {
                      "internalType": "uint256",
                      "name": "userUnclaimedRewards",
                      "type": "uint256"
                    },
                    {
                      "internalType": "uint256",
                      "name": "tokenIncentivesUserIndex",
                      "type": "uint256"
                    },
                    {
                      "internalType": "int256",
                      "name": "rewardPriceFeed",
                      "type": "int256"
                    },
                    {
                      "internalType": "uint8",
                      "name": "priceFeedDecimals",
                      "type": "uint8"
                    },
                    {
                      "internalType": "uint8",
                      "name": "rewardTokenDecimals",
                      "type": "uint8"
                    }
                  ],
                  "internalType": "struct IUiIncentiveDataProviderV3.UserRewardInfo[]",
                  "name": "userRewardsInformation",
                  "type": "tuple[]"
                }
              ],
              "internalType": "struct IUiIncentiveDataProviderV3.UserIncentiveData",
              "name": "aTokenIncentivesUserData",
              "type": "tuple"
            },
            {
              "components": [
                {
                  "internalType": "address",
                  "name": "tokenAddress",
                  "type": "address"
                },
                {
                  "internalType": "address",
                  "name": "incentiveControllerAddress",
                  "type": "address"
                },
                {
                  "components": [
                    {
                      "internalType": "string",
                      "name": "rewardTokenSymbol",
                      "type": "string"
                    },
                    {
                      "internalType": "address",
                      "name": "rewardOracleAddress",
                      "type": "address"
                    },
                    {
                      "internalType": "address",
                      "name": "rewardTokenAddress",
                      "type": "address"
                    },
                    {
                      "internalType": "uint256",
                      "name": "userUnclaimedRewards",
                      "type": "uint256"
                    },
                    {
                      "internalType": "uint256",
                      "name": "tokenIncentivesUserIndex",
                      "type": "uint256"
                    },
                    {
                      "internalType": "int256",
                      "name": "rewardPriceFeed",
                      "type": "int256"
                    },
                    {
                      "internalType": "uint8",
                      "name": "priceFeedDecimals",
                      "type": "uint8"
                    },
                    {
                      "internalType": "uint8",
                      "name": "rewardTokenDecimals",
                      "type": "uint8"
                    }
                  ],
                  "internalType": "struct IUiIncentiveDataProviderV3.UserRewardInfo[]",
                  "name": "userRewardsInformation",
                  "type": "tuple[]"
                }
              ],
              "internalType": "struct IUiIncentiveDataProviderV3.UserIncentiveData",
              "name": "vTokenIncentivesUserData",
              "type": "tuple"
            },
            {
              "components": [
                {
                  "internalType": "address",
                  "name": "tokenAddress",
                  "type": "address"
                },
                {
                  "internalType": "address",
                  "name": "incentiveControllerAddress",
                  "type": "address"
                },
                {
                  "components": [
                    {
                      "internalType": "string",
                      "name": "rewardTokenSymbol",
                      "type": "string"
                    },
                    {
                      "internalType": "address",
                      "name": "rewardOracleAddress",
                      "type": "address"
                    },
                    {
                      "internalType": "address",
                      "name": "rewardTokenAddress",
                      "type": "address"
                    },
                    {
                      "internalType": "uint256",
                      "name": "userUnclaimedRewards",
                      "type": "uint256"
                    },
                    {
                      "internalType": "uint256",
                      "name": "tokenIncentivesUserIndex",
                      "type": "uint256"
                    },
                    {
                      "internalType": "int256",
                      "name": "rewardPriceFeed",
                      "type": "int256"
                    },
                    {
                      "internalType": "uint8",
                      "name": "priceFeedDecimals",
                      "type": "uint8"
                    },
                    {
                      "internalType": "uint8",
                      "name": "rewardTokenDecimals",
                      "type": "uint8"
                    }
                  ],
                  "internalType": "struct IUiIncentiveDataProviderV3.UserRewardInfo[]",
                  "name": "userRewardsInformation",
                  "type": "tuple[]"
                }
              ],
              "internalType": "struct IUiIncentiveDataProviderV3.UserIncentiveData",
              "name": "sTokenIncentivesUserData",
              "type": "tuple"
            }
          ],
          "internalType": "struct IUiIncentiveDataProviderV3.UserReserveIncentiveData[]",
          "name": "",
          "type": "tuple[]"
        }
      ],
      "stateMutability": "view",
      "type": "function"
    }
  ],
  "bytecode": "0x608060405234801561001057600080fd5b50613d03806100206000396000f3fe608060405234801561001057600080fd5b50600436106100415760003560e01c80634763753614610046578063799bdcf514610070578063976fafc514610090575b600080fd5b61005961005436600461334f565b6100b0565b6040516100679291906137bb565b60405180910390f35b61008361007e36600461334f565b6100d1565b60405161006791906137e9565b6100a361009e3660046137fc565b6100e4565b6040516100679190613819565b6060806100bc846100f5565b6100c68585611a22565b915091509250929050565b60606100dd8383611a22565b9392505050565b60606100ef826100f5565b92915050565b606060008273ffffffffffffffffffffffffffffffffffffffff1663026b1d5f6040518163ffffffff1660e01b8152600401602060405180830381865afa158015610144573d6000803e3d6000fd5b505050506040513d601f19601f82011682018060405250810190610168919061383c565b905060008173ffffffffffffffffffffffffffffffffffffffff1663d1946dbc6040518163ffffffff1660e01b8152600401600060405180830381865afa1580156101b7573d6000803e3d6000fd5b505050506040513d6000823e601f3d908101601f191682016040526101df91908101906138e3565b90506000815167ffffffffffffffff8111156101fd576101fd613859565b60405190808252806020026020018201604052801561023657816020015b610223613273565b81526020019060019003908161021b5790505b50905060005b8251811015611a1957600082828151811061025957610259613995565b6020026020010151905083828151811061027557610275613995565b6020026020010151816000019073ffffffffffffffffffffffffffffffffffffffff16908173ffffffffffffffffffffffffffffffffffffffff168152505060008573ffffffffffffffffffffffffffffffffffffffff166335ea6a758685815181106102e4576102e4613995565b60200260200101516040518263ffffffff1660e01b8152600401610324919073ffffffffffffffffffffffffffffffffffffffff91909116815260200190565b6101e060405180830381865afa158015610342573d6000803e3d6000fd5b505050506040513d601f19601f820116820180604052508101906103669190613a4d565b9050600081610100015173ffffffffffffffffffffffffffffffffffffffff166375d264136040518163ffffffff1660e01b8152600401602060405180830381865afa1580156103ba573d6000803e3d6000fd5b505050506040513d601f19601f820116820180604052508101906103de919061383c565b9050606073ffffffffffffffffffffffffffffffffffffffff821615610a9a576101008301516040517f6657732f00000000000000000000000000000000000000000000000000000000815273ffffffffffffffffffffffffffffffffffffffff9182166004820152600091841690636657732f90602401600060405180830381865afa158015610473573d6000803e3d6000fd5b505050506040513d6000823e601f3d908101601f1916820160405261049b91908101906138e3565b9050805167ffffffffffffffff8111156104b7576104b7613859565b60405190808252806020026020018201604052801561057a57816020015b61056760405180610160016040528060608152602001600073ffffffffffffffffffffffffffffffffffffffff168152602001600073ffffffffffffffffffffffffffffffffffffffff1681526020016000815260200160008152602001600081526020016000815260200160008152602001600060ff168152602001600060ff168152602001600060ff1681525090565b8152602001906001900390816104d55790505b50915060005b8151811015610a975761061b60405180610160016040528060608152602001600073ffffffffffffffffffffffffffffffffffffffff168152602001600073ffffffffffffffffffffffffffffffffffffffff1681526020016000815260200160008152602001600081526020016000815260200160008152602001600060ff168152602001600060ff168152602001600060ff1681525090565b82828151811061062d5761062d613995565b60209081029190910181015173ffffffffffffffffffffffffffffffffffffffff9081169183018290526101008801516040517f7eff4ba800000000000000000000000000000000000000000000000000000000815290821660048201526024810192909252861690637eff4ba890604401608060405180830381865afa1580156106bc573d6000803e3d6000fd5b505050506040513d601f19601f820116820180604052508101906106e09190613b70565b60c08501526080840152606083015260a08201526101008601516040517f9efd6f7200000000000000000000000000000000000000000000000000000000815273ffffffffffffffffffffffffffffffffffffffff918216600482015290861690639efd6f7290602401602060405180830381865afa158015610767573d6000803e3d6000fd5b505050506040513d601f19601f8201168201806040525081019061078b9190613ba6565b60ff16610120820152602080820151604080517f313ce567000000000000000000000000000000000000000000000000000000008152905173ffffffffffffffffffffffffffffffffffffffff9092169263313ce567926004808401938290030181865afa158015610801573d6000803e3d6000fd5b505050506040513d601f19601f820116820180604052508101906108259190613ba6565b81610100019060ff16908160ff1681525050806020015173ffffffffffffffffffffffffffffffffffffffff166395d89b416040518163ffffffff1660e01b8152600401600060405180830381865afa158015610886573d6000803e3d6000fd5b505050506040513d6000823e601f3d908101601f191682016040526108ae9190810190613bc9565b815260208101516040517f2a17bf6000000000000000000000000000000000000000000000000000000000815273ffffffffffffffffffffffffffffffffffffffff918216600482015290861690632a17bf6090602401602060405180830381865afa158015610922573d6000803e3d6000fd5b505050506040513d601f19601f82011682018060405250810190610946919061383c565b73ffffffffffffffffffffffffffffffffffffffff16604080830182905280517f313ce567000000000000000000000000000000000000000000000000000000008152905163313ce567916004808201926020929091908290030181865afa1580156109b6573d6000803e3d6000fd5b505050506040513d601f19601f820116820180604052508101906109da9190613ba6565b81610140019060ff16908160ff1681525050806040015173ffffffffffffffffffffffffffffffffffffffff166350d25bcd6040518163ffffffff1660e01b8152600401602060405180830381865afa158015610a3b573d6000803e3d6000fd5b505050506040513d601f19601f82011682018060405250810190610a5f9190613c54565b60e082015283518190859084908110610a7a57610a7a613995565b60200260200101819052505080610a9090613c6d565b9050610580565b50505b604051806060016040528084610100015173ffffffffffffffffffffffffffffffffffffffff1681526020018373ffffffffffffffffffffffffffffffffffffffff168152602001828152508460200181905250600083610140015173ffffffffffffffffffffffffffffffffffffffff166375d264136040518163ffffffff1660e01b8152600401602060405180830381865afa158015610b40573d6000803e3d6000fd5b505050506040513d601f19601f82011682018060405250810190610b64919061383c565b6101408501516040517f6657732f00000000000000000000000000000000000000000000000000000000815273ffffffffffffffffffffffffffffffffffffffff918216600482015291925060009190831690636657732f90602401600060405180830381865afa158015610bdd573d6000803e3d6000fd5b505050506040513d6000823e601f3d908101601f19168201604052610c0591908101906138e3565b9050606073ffffffffffffffffffffffffffffffffffffffff83161561122157815167ffffffffffffffff811115610c3f57610c3f613859565b604051908082528060200260200182016040528015610d0257816020015b610cef60405180610160016040528060608152602001600073ffffffffffffffffffffffffffffffffffffffff168152602001600073ffffffffffffffffffffffffffffffffffffffff1681526020016000815260200160008152602001600081526020016000815260200160008152602001600060ff168152602001600060ff168152602001600060ff1681525090565b815260200190600190039081610c5d5790505b50905060005b825181101561121f57610da360405180610160016040528060608152602001600073ffffffffffffffffffffffffffffffffffffffff168152602001600073ffffffffffffffffffffffffffffffffffffffff1681526020016000815260200160008152602001600081526020016000815260200160008152602001600060ff168152602001600060ff168152602001600060ff1681525090565b838281518110610db557610db5613995565b60209081029190910181015173ffffffffffffffffffffffffffffffffffffffff9081169183018290526101408a01516040517f7eff4ba800000000000000000000000000000000000000000000000000000000815290821660048201526024810192909252861690637eff4ba890604401608060405180830381865afa158015610e44573d6000803e3d6000fd5b505050506040513d601f19601f82011682018060405250810190610e689190613b70565b60c08501526080840152606083015260a08201526101408801516040517f9efd6f7200000000000000000000000000000000000000000000000000000000815273ffffffffffffffffffffffffffffffffffffffff918216600482015290861690639efd6f7290602401602060405180830381865afa158015610eef573d6000803e3d6000fd5b505050506040513d601f19601f82011682018060405250810190610f139190613ba6565b60ff16610120820152602080820151604080517f313ce567000000000000000000000000000000000000000000000000000000008152905173ffffffffffffffffffffffffffffffffffffffff9092169263313ce567926004808401938290030181865afa158015610f89573d6000803e3d6000fd5b505050506040513d601f19601f82011682018060405250810190610fad9190613ba6565b81610100019060ff16908160ff1681525050806020015173ffffffffffffffffffffffffffffffffffffffff166395d89b416040518163ffffffff1660e01b8152600401600060405180830381865afa15801561100e573d6000803e3d6000fd5b505050506040513d6000823e601f3d908101601f191682016040526110369190810190613bc9565b815260208101516040517f2a17bf6000000000000000000000000000000000000000000000000000000000815273ffffffffffffffffffffffffffffffffffffffff918216600482015290861690632a17bf6090602401602060405180830381865afa1580156110aa573d6000803e3d6000fd5b505050506040513d601f19601f820116820180604052508101906110ce919061383c565b73ffffffffffffffffffffffffffffffffffffffff16604080830182905280517f313ce567000000000000000000000000000000000000000000000000000000008152905163313ce567916004808201926020929091908290030181865afa15801561113e573d6000803e3d6000fd5b505050506040513d601f19601f820116820180604052508101906111629190613ba6565b81610140019060ff16908160ff1681525050806040015173ffffffffffffffffffffffffffffffffffffffff166350d25bcd6040518163ffffffff1660e01b8152600401602060405180830381865afa1580156111c3573d6000803e3d6000fd5b505050506040513d601f19601f820116820180604052508101906111e79190613c54565b60e08201528251819084908490811061120257611202613995565b6020026020010181905250508061121890613c6d565b9050610d08565b505b604051806060016040528087610140015173ffffffffffffffffffffffffffffffffffffffff1681526020018473ffffffffffffffffffffffffffffffffffffffff168152602001828152508760400181905250600086610120015173ffffffffffffffffffffffffffffffffffffffff166375d264136040518163ffffffff1660e01b8152600401602060405180830381865afa1580156112c7573d6000803e3d6000fd5b505050506040513d601f19601f820116820180604052508101906112eb919061383c565b6101208801516040517f6657732f00000000000000000000000000000000000000000000000000000000815273ffffffffffffffffffffffffffffffffffffffff918216600482015291925060009190831690636657732f90602401600060405180830381865afa158015611364573d6000803e3d6000fd5b505050506040513d6000823e601f3d908101601f1916820160405261138c91908101906138e3565b9050606073ffffffffffffffffffffffffffffffffffffffff8316156119a857815167ffffffffffffffff8111156113c6576113c6613859565b60405190808252806020026020018201604052801561148957816020015b61147660405180610160016040528060608152602001600073ffffffffffffffffffffffffffffffffffffffff168152602001600073ffffffffffffffffffffffffffffffffffffffff1681526020016000815260200160008152602001600081526020016000815260200160008152602001600060ff168152602001600060ff168152602001600060ff1681525090565b8152602001906001900390816113e45790505b50905060005b82518110156119a65761152a60405180610160016040528060608152602001600073ffffffffffffffffffffffffffffffffffffffff168152602001600073ffffffffffffffffffffffffffffffffffffffff1681526020016000815260200160008152602001600081526020016000815260200160008152602001600060ff168152602001600060ff168152602001600060ff1681525090565b83828151811061153c5761153c613995565b60209081029190910181015173ffffffffffffffffffffffffffffffffffffffff9081169183018290526101208d01516040517f7eff4ba800000000000000000000000000000000000000000000000000000000815290821660048201526024810192909252861690637eff4ba890604401608060405180830381865afa1580156115cb573d6000803e3d6000fd5b505050506040513d601f19601f820116820180604052508101906115ef9190613b70565b60c08501526080840152606083015260a08201526101208b01516040517f9efd6f7200000000000000000000000000000000000000000000000000000000815273ffffffffffffffffffffffffffffffffffffffff918216600482015290861690639efd6f7290602401602060405180830381865afa158015611676573d6000803e3d6000fd5b505050506040513d601f19601f8201168201806040525081019061169a9190613ba6565b60ff16610120820152602080820151604080517f313ce567000000000000000000000000000000000000000000000000000000008152905173ffffffffffffffffffffffffffffffffffffffff9092169263313ce567926004808401938290030181865afa158015611710573d6000803e3d6000fd5b505050506040513d601f19601f820116820180604052508101906117349190613ba6565b81610100019060ff16908160ff1681525050806020015173ffffffffffffffffffffffffffffffffffffffff166395d89b416040518163ffffffff1660e01b8152600401600060405180830381865afa158015611795573d6000803e3d6000fd5b505050506040513d6000823e601f3d908101601f191682016040526117bd9190810190613bc9565b815260208101516040517f2a17bf6000000000000000000000000000000000000000000000000000000000815273ffffffffffffffffffffffffffffffffffffffff918216600482015290861690632a17bf6090602401602060405180830381865afa158015611831573d6000803e3d6000fd5b505050506040513d601f19601f82011682018060405250810190611855919061383c565b73ffffffffffffffffffffffffffffffffffffffff16604080830182905280517f313ce567000000000000000000000000000000000000000000000000000000008152905163313ce567916004808201926020929091908290030181865afa1580156118c5573d6000803e3d6000fd5b505050506040513d601f19601f820116820180604052508101906118e99190613ba6565b81610140019060ff16908160ff1681525050806040015173ffffffffffffffffffffffffffffffffffffffff166350d25bcd6040518163ffffffff1660e01b8152600401602060405180830381865afa15801561194a573d6000803e3d6000fd5b505050506040513d601f19601f8201168201806040525081019061196e9190613c54565b60e08201528251819084908490811061198957611989613995565b6020026020010181905250508061199f90613c6d565b905061148f565b505b60405180606001604052808a610120015173ffffffffffffffffffffffffffffffffffffffff1681526020018473ffffffffffffffffffffffffffffffffffffffff168152602001828152508a60600181905250505050505050505050508080611a1190613c6d565b91505061023c565b50949350505050565b606060008373ffffffffffffffffffffffffffffffffffffffff1663026b1d5f6040518163ffffffff1660e01b8152600401602060405180830381865afa158015611a71573d6000803e3d6000fd5b505050506040513d601f19601f82011682018060405250810190611a95919061383c565b905060008173ffffffffffffffffffffffffffffffffffffffff1663d1946dbc6040518163ffffffff1660e01b8152600401600060405180830381865afa158015611ae4573d6000803e3d6000fd5b505050506040513d6000823e601f3d908101601f19168201604052611b0c91908101906138e3565b9050600073ffffffffffffffffffffffffffffffffffffffff8516611b32576000611b35565b81515b67ffffffffffffffff811115611b4d57611b4d613859565b604051908082528060200260200182016040528015611b8657816020015b611b73613273565b815260200190600190039081611b6b5790505b50905060005b82518110156132695760008473ffffffffffffffffffffffffffffffffffffffff166335ea6a75858481518110611bc557611bc5613995565b60200260200101516040518263ffffffff1660e01b8152600401611c05919073ffffffffffffffffffffffffffffffffffffffff91909116815260200190565b6101e060405180830381865afa158015611c23573d6000803e3d6000fd5b505050506040513d601f19601f82011682018060405250810190611c479190613a4d565b9050838281518110611c5b57611c5b613995565b6020026020010151838381518110611c7557611c75613995565b60200260200101516000019073ffffffffffffffffffffffffffffffffffffffff16908173ffffffffffffffffffffffffffffffffffffffff1681525050600081610100015173ffffffffffffffffffffffffffffffffffffffff166375d264136040518163ffffffff1660e01b8152600401602060405180830381865afa158015611d05573d6000803e3d6000fd5b505050506040513d601f19601f82011682018060405250810190611d29919061383c565b905073ffffffffffffffffffffffffffffffffffffffff8116156123c2576101008201516040517f6657732f00000000000000000000000000000000000000000000000000000000815273ffffffffffffffffffffffffffffffffffffffff9182166004820152600091831690636657732f90602401600060405180830381865afa158015611dbc573d6000803e3d6000fd5b505050506040513d6000823e601f3d908101601f19168201604052611de491908101906138e3565b90506000815167ffffffffffffffff811115611e0257611e02613859565b604051908082528060200260200182016040528015611e9057816020015b60408051610100810182526060808252600060208084018290529383018190529082018190526080820181905260a0820181905260c0820181905260e082015282527fffffffffffffffffffffffffffffffffffffffffffffffffffffffffffffffff909201910181611e205790505b50905060005b8251811015612351576040805161010081018252606080825260006020830181905292820183905281018290526080810182905260a0810182905260c0810182905260e0810191909152838281518110611ef257611ef2613995565b602090810291909101015173ffffffffffffffffffffffffffffffffffffffff908116604080840182905261010089015190517f533f542a0000000000000000000000000000000000000000000000000000000081528f84166004820152908316602482015260448101919091529086169063533f542a90606401602060405180830381865afa158015611f8a573d6000803e3d6000fd5b505050506040513d601f19601f82011682018060405250810190611fae9190613c54565b608082015260408082015190517fb022418c00000000000000000000000000000000000000000000000000000000815273ffffffffffffffffffffffffffffffffffffffff8e8116600483015291821660248201529086169063b022418c90604401602060405180830381865afa15801561202d573d6000803e3d6000fd5b505050506040513d601f19601f820116820180604052508101906120519190613c54565b816060018181525050806040015173ffffffffffffffffffffffffffffffffffffffff1663313ce5676040518163ffffffff1660e01b8152600401602060405180830381865afa1580156120a9573d6000803e3d6000fd5b505050506040513d601f19601f820116820180604052508101906120cd9190613ba6565b8160e0019060ff16908160ff1681525050806040015173ffffffffffffffffffffffffffffffffffffffff166395d89b416040518163ffffffff1660e01b8152600401600060405180830381865afa15801561212d573d6000803e3d6000fd5b505050506040513d6000823e601f3d908101601f191682016040526121559190810190613bc9565b815260408082015190517f2a17bf6000000000000000000000000000000000000000000000000000000000815273ffffffffffffffffffffffffffffffffffffffff918216600482015290861690632a17bf6090602401602060405180830381865afa1580156121c9573d6000803e3d6000fd5b505050506040513d601f19601f820116820180604052508101906121ed919061383c565b73ffffffffffffffffffffffffffffffffffffffff166020808301829052604080517f313ce567000000000000000000000000000000000000000000000000000000008152905163313ce567926004808401939192918290030181865afa15801561225c573d6000803e3d6000fd5b505050506040513d601f19601f820116820180604052508101906122809190613ba6565b60ff1660c0820152602080820151604080517f50d25bcd000000000000000000000000000000000000000000000000000000008152905173ffffffffffffffffffffffffffffffffffffffff909216926350d25bcd926004808401938290030181865afa1580156122f5573d6000803e3d6000fd5b505050506040513d601f19601f820116820180604052508101906123199190613c54565b60a08201528251819084908490811061233457612334613995565b6020026020010181905250508061234a90613c6d565b9050611e96565b50604051806060016040528085610100015173ffffffffffffffffffffffffffffffffffffffff1681526020018473ffffffffffffffffffffffffffffffffffffffff168152602001828152508686815181106123b0576123b0613995565b60200260200101516020018190525050505b600082610140015173ffffffffffffffffffffffffffffffffffffffff166375d264136040518163ffffffff1660e01b8152600401602060405180830381865afa158015612414573d6000803e3d6000fd5b505050506040513d601f19601f82011682018060405250810190612438919061383c565b905073ffffffffffffffffffffffffffffffffffffffff811615612b06576101408301516040517f6657732f00000000000000000000000000000000000000000000000000000000815273ffffffffffffffffffffffffffffffffffffffff9182166004820152600091831690636657732f90602401600060405180830381865afa1580156124cb573d6000803e3d6000fd5b505050506040513d6000823e601f3d908101601f191682016040526124f391908101906138e3565b90506000815167ffffffffffffffff81111561251157612511613859565b60405190808252806020026020018201604052801561259f57816020015b60408051610100810182526060808252600060208084018290529383018190529082018190526080820181905260a0820181905260c0820181905260e082015282527fffffffffffffffffffffffffffffffffffffffffffffffffffffffffffffffff90920191018161252f5790505b50905060005b8251811015612a95576040805161010081018252606080825260006020830181905292820183905281018290526080810182905260a0810182905260c0810182905260e081019190915283828151811061260157612601613995565b6020026020010151816040019073ffffffffffffffffffffffffffffffffffffffff16908173ffffffffffffffffffffffffffffffffffffffff16815250508473ffffffffffffffffffffffffffffffffffffffff1663533f542a8e89610140015184604001516040518463ffffffff1660e01b81526004016126b19392919073ffffffffffffffffffffffffffffffffffffffff93841681529183166020830152909116604082015260600190565b602060405180830381865afa1580156126ce573d6000803e3d6000fd5b505050506040513d601f19601f820116820180604052508101906126f29190613c54565b608082015260408082015190517fb022418c00000000000000000000000000000000000000000000000000000000815273ffffffffffffffffffffffffffffffffffffffff8f8116600483015291821660248201529086169063b022418c90604401602060405180830381865afa158015612771573d6000803e3d6000fd5b505050506040513d601f19601f820116820180604052508101906127959190613c54565b816060018181525050806040015173ffffffffffffffffffffffffffffffffffffffff1663313ce5676040518163ffffffff1660e01b8152600401602060405180830381865afa1580156127ed573d6000803e3d6000fd5b505050506040513d601f19601f820116820180604052508101906128119190613ba6565b8160e0019060ff16908160ff1681525050806040015173ffffffffffffffffffffffffffffffffffffffff166395d89b416040518163ffffffff1660e01b8152600401600060405180830381865afa158015612871573d6000803e3d6000fd5b505050506040513d6000823e601f3d908101601f191682016040526128999190810190613bc9565b815260408082015190517f2a17bf6000000000000000000000000000000000000000000000000000000000815273ffffffffffffffffffffffffffffffffffffffff918216600482015290861690632a17bf6090602401602060405180830381865afa15801561290d573d6000803e3d6000fd5b505050506040513d601f19601f82011682018060405250810190612931919061383c565b73ffffffffffffffffffffffffffffffffffffffff166020808301829052604080517f313ce567000000000000000000000000000000000000000000000000000000008152905163313ce567926004808401939192918290030181865afa1580156129a0573d6000803e3d6000fd5b505050506040513d601f19601f820116820180604052508101906129c49190613ba6565b60ff1660c0820152602080820151604080517f50d25bcd000000000000000000000000000000000000000000000000000000008152905173ffffffffffffffffffffffffffffffffffffffff909216926350d25bcd926004808401938290030181865afa158015612a39573d6000803e3d6000fd5b505050506040513d601f19601f82011682018060405250810190612a5d9190613c54565b60a082015282518190849084908110612a7857612a78613995565b60200260200101819052505080612a8e90613c6d565b90506125a5565b50604051806060016040528086610140015173ffffffffffffffffffffffffffffffffffffffff1681526020018573ffffffffffffffffffffffffffffffffffffffff16815260200182815250878781518110612af457612af4613995565b60200260200101516040018190525050505b600083610120015173ffffffffffffffffffffffffffffffffffffffff166375d264136040518163ffffffff1660e01b8152600401602060405180830381865afa158015612b58573d6000803e3d6000fd5b505050506040513d601f19601f82011682018060405250810190612b7c919061383c565b905073ffffffffffffffffffffffffffffffffffffffff811615613252576101208401516040517f6657732f00000000000000000000000000000000000000000000000000000000815273ffffffffffffffffffffffffffffffffffffffff9182166004820152600091831690636657732f90602401600060405180830381865afa158015612c0f573d6000803e3d6000fd5b505050506040513d6000823e601f3d908101601f19168201604052612c3791908101906138e3565b90506000815167ffffffffffffffff811115612c5557612c55613859565b604051908082528060200260200182016040528015612ce357816020015b60408051610100810182526060808252600060208084018290529383018190529082018190526080820181905260a0820181905260c0820181905260e082015282527fffffffffffffffffffffffffffffffffffffffffffffffffffffffffffffffff909201910181612c735790505b50905060005b82518110156131e1576040805161010081018252606080825260006020830181905292820183905281018290526080810182905260a0810182905260c0810182905260e0810191909152838281518110612d4557612d45613995565b6020026020010151816040019073ffffffffffffffffffffffffffffffffffffffff16908173ffffffffffffffffffffffffffffffffffffffff16815250508473ffffffffffffffffffffffffffffffffffffffff1663533f542a8f8a610120015184604001516040518463ffffffff1660e01b8152600401612df59392919073ffffffffffffffffffffffffffffffffffffffff93841681529183166020830152909116604082015260600190565b602060405180830381865afa158015612e12573d6000803e3d6000fd5b505050506040513d601f19601f82011682018060405250810190612e369190613c54565b8160800181815250508473ffffffffffffffffffffffffffffffffffffffff1663b022418c8f83604001516040518363ffffffff1660e01b8152600401612ea092919073ffffffffffffffffffffffffffffffffffffffff92831681529116602082015260400190565b602060405180830381865afa158015612ebd573d6000803e3d6000fd5b505050506040513d601f19601f82011682018060405250810190612ee19190613c54565b816060018181525050806040015173ffffffffffffffffffffffffffffffffffffffff1663313ce5676040518163ffffffff1660e01b8152600401602060405180830381865afa158015612f39573d6000803e3d6000fd5b505050506040513d601f19601f82011682018060405250810190612f5d9190613ba6565b8160e0019060ff16908160ff1681525050806040015173ffffffffffffffffffffffffffffffffffffffff166395d89b416040518163ffffffff1660e01b8152600401600060405180830381865afa158015612fbd573d6000803e3d6000fd5b505050506040513d6000823e601f3d908101601f19168201604052612fe59190810190613bc9565b815260408082015190517f2a17bf6000000000000000000000000000000000000000000000000000000000815273ffffffffffffffffffffffffffffffffffffffff918216600482015290861690632a17bf6090602401602060405180830381865afa158015613059573d6000803e3d6000fd5b505050506040513d601f19601f8201168201806040525081019061307d919061383c565b73ffffffffffffffffffffffffffffffffffffffff166020808301829052604080517f313ce567000000000000000000000000000000000000000000000000000000008152905163313ce567926004808401939192918290030181865afa1580156130ec573d6000803e3d6000fd5b505050506040513d601f19601f820116820180604052508101906131109190613ba6565b60ff1660c0820152602080820151604080517f50d25bcd000000000000000000000000000000000000000000000000000000008152905173ffffffffffffffffffffffffffffffffffffffff909216926350d25bcd926004808401938290030181865afa158015613185573d6000803e3d6000fd5b505050506040513d601f19601f820116820180604052508101906131a99190613c54565b60a0820152825181908490849081106131c4576131c4613995565b602002602001018190525050806131da90613c6d565b9050612ce9565b50604051806060016040528087610120015173ffffffffffffffffffffffffffffffffffffffff1681526020018673ffffffffffffffffffffffffffffffffffffffff1681526020018281525088888151811061324057613240613995565b60200260200101516060018190525050505b50505050808061326190613c6d565b915050611b8c565b5095945050505050565b6040518060800160405280600073ffffffffffffffffffffffffffffffffffffffff1681526020016132eb6040518060600160405280600073ffffffffffffffffffffffffffffffffffffffff168152602001600073ffffffffffffffffffffffffffffffffffffffff168152602001606081525090565b81526040805160608082018352600080835260208084018290528385018390528086019390935283518083018552818152928301528183015291015290565b73ffffffffffffffffffffffffffffffffffffffff8116811461334c57600080fd5b50565b6000806040838503121561336257600080fd5b823561336d8161332a565b9150602083013561337d8161332a565b809150509250929050565b60005b838110156133a357818101518382015260200161338b565b838111156133b2576000848401525b50505050565b600081518084526133d0816020860160208601613388565b601f01601f19169290920160200192915050565b6000606080840173ffffffffffffffffffffffffffffffffffffffff8085511686526020818187015116818801526040915081860151848389015283815180865260809550858a019150858160051b8b0101848401935060005b82811015613535577fffffffffffffffffffffffffffffffffffffffffffffffffffffffffffffff808c830301845284516101608151818552613483828601826133b8565b915050878201516134ab8986018273ffffffffffffffffffffffffffffffffffffffff169052565b508882015173ffffffffffffffffffffffffffffffffffffffff16848a01528a8201518b850152898201518a85015260a0808301519085015260c0808301519085015260e080830151908501526101008083015160ff908116918601919091526101208084015182169086015261014092830151169190930152938501939285019260010161343e565b509a9950505050505050505050565b600081518084526020808501808196508360051b8101915082860160005b858110156135ee5782840389528151608073ffffffffffffffffffffffffffffffffffffffff82511686528682015181888801526135a2828801826133e4565b915050604080830151878303828901526135bc83826133e4565b92505050606080830151925086820381880152506135da81836133e4565b9a87019a9550505090840190600101613562565b5091979650505050505050565b6000606080840173ffffffffffffffffffffffffffffffffffffffff80855116865260208181870151168188015260408087015185828a015284815180875260809650868b019150868160051b8c0101858401935060005b82811015613701577fffffffffffffffffffffffffffffffffffffffffffffffffffffffffffffff808d830301845284516101008151818552613698828601826133b8565b91505089898301511689850152898883015116888501528b8201518c8501528a8201518b85015260a080830151818601525060c0808301516136de8287018260ff169052565b505060e09182015160ff1693909101929092529386019392860192600101613653565b509b9a5050505050505050505050565b600081518084526020808501808196508360051b8101915082860160005b858110156135ee5782840389528151608073ffffffffffffffffffffffffffffffffffffffff825116865286820151818888015261376f828801826135fb565b9150506040808301518783038289015261378983826135fb565b92505050606080830151925086820381880152506137a781836135fb565b9a87019a955050509084019060010161372f565b6040815260006137ce6040830185613544565b82810360208401526137e08185613711565b95945050505050565b6020815260006100dd6020830184613711565b60006020828403121561380e57600080fd5b81356100dd8161332a565b6020815260006100dd6020830184613544565b80516138378161332a565b919050565b60006020828403121561384e57600080fd5b81516100dd8161332a565b7f4e487b7100000000000000000000000000000000000000000000000000000000600052604160045260246000fd5b6040516101e0810167ffffffffffffffff811182821017156138ac576138ac613859565b60405290565b604051601f8201601f1916810167ffffffffffffffff811182821017156138db576138db613859565b604052919050565b600060208083850312156138f657600080fd5b825167ffffffffffffffff8082111561390e57600080fd5b818501915085601f83011261392257600080fd5b81518181111561393457613934613859565b8060051b91506139458483016138b2565b818152918301840191848101908884111561395f57600080fd5b938501935b8385101561398957845192506139798361332a565b8282529385019390850190613964565b98975050505050505050565b7f4e487b7100000000000000000000000000000000000000000000000000000000600052603260045260246000fd5b6000602082840312156139d657600080fd5b6040516020810181811067ffffffffffffffff821117156139f9576139f9613859565b6040529151825250919050565b80516fffffffffffffffffffffffffffffffff8116811461383757600080fd5b805164ffffffffff8116811461383757600080fd5b805161ffff8116811461383757600080fd5b60006101e08284031215613a6057600080fd5b613a68613888565b613a7284846139c4565b8152613a8060208401613a06565b6020820152613a9160408401613a06565b6040820152613aa260608401613a06565b6060820152613ab360808401613a06565b6080820152613ac460a08401613a06565b60a0820152613ad560c08401613a26565b60c0820152613ae660e08401613a3b565b60e0820152610100613af981850161382c565b90820152610120613b0b84820161382c565b90820152610140613b1d84820161382c565b90820152610160613b2f84820161382c565b90820152610180613b41848201613a06565b908201526101a0613b53848201613a06565b908201526101c0613b65848201613a06565b908201529392505050565b60008060008060808587031215613b8657600080fd5b505082516020840151604085015160609095015191969095509092509050565b600060208284031215613bb857600080fd5b815160ff811681146100dd57600080fd5b600060208284031215613bdb57600080fd5b815167ffffffffffffffff80821115613bf357600080fd5b818401915084601f830112613c0757600080fd5b815181811115613c1957613c19613859565b613c2c6020601f19601f840116016138b2565b9150808252856020828501011115613c4357600080fd5b611a19816020840160208601613388565b600060208284031215613c6657600080fd5b5051919050565b60007fffffffffffffffffffffffffffffffffffffffffffffffffffffffffffffffff821415613cc6577f4e487b7100000000000000000000000000000000000000000000000000000000600052601160045260246000fd5b506001019056fea2646970667358221220b5580afe815d8a333261e2b0255d99e7985246d982e3eb277db5f05aee724d1964736f6c634300080a0033",
  "linkReferences": {},
  "deployedLinkReferences": {}
}